{
  "contractName": "Controller",
  "abi": [
    {
      "inputs": [],
      "stateMutability": "nonpayable",
      "type": "constructor"
    },
    {
      "anonymous": false,
      "inputs": [
        {
          "indexed": true,
          "internalType": "address",
          "name": "previousOwner",
          "type": "address"
        },
        {
          "indexed": true,
          "internalType": "address",
          "name": "newOwner",
          "type": "address"
        }
      ],
      "name": "OwnershipTransferred",
      "type": "event"
    },
    {
      "inputs": [],
      "name": "AETH",
      "outputs": [
        {
          "internalType": "address",
          "name": "",
          "type": "address"
        }
      ],
      "stateMutability": "view",
      "type": "function"
    },
    {
      "inputs": [],
      "name": "AMM",
      "outputs": [
        {
          "internalType": "contract IAutomaticMarketMaker",
          "name": "",
          "type": "address"
        }
      ],
      "stateMutability": "view",
      "type": "function"
    },
    {
      "inputs": [],
      "name": "DEUS",
      "outputs": [
        {
          "internalType": "address",
          "name": "",
          "type": "address"
        }
      ],
      "stateMutability": "view",
      "type": "function"
    },
    {
      "inputs": [
        {
          "internalType": "address",
          "name": "",
          "type": "address"
        }
      ],
      "name": "exitTokens",
      "outputs": [
        {
          "internalType": "address",
          "name": "",
          "type": "address"
        }
      ],
      "stateMutability": "view",
      "type": "function"
    },
    {
      "inputs": [],
      "name": "minBuyFromAMM",
      "outputs": [
        {
          "internalType": "uint256",
          "name": "",
          "type": "uint256"
        }
      ],
      "stateMutability": "view",
      "type": "function"
    },
    {
      "inputs": [
        {
          "internalType": "address",
          "name": "",
          "type": "address"
        }
      ],
      "name": "multipliers",
      "outputs": [
        {
          "internalType": "uint256",
          "name": "",
          "type": "uint256"
        }
      ],
      "stateMutability": "view",
      "type": "function"
    },
    {
      "inputs": [],
      "name": "operator",
      "outputs": [
        {
          "internalType": "address",
          "name": "",
          "type": "address"
        }
      ],
      "stateMutability": "view",
      "type": "function"
    },
    {
      "inputs": [],
      "name": "owner",
      "outputs": [
        {
          "internalType": "address",
          "name": "",
          "type": "address"
        }
      ],
      "stateMutability": "view",
      "type": "function"
    },
    {
      "inputs": [],
      "name": "renounceOwnership",
      "outputs": [],
      "stateMutability": "nonpayable",
      "type": "function"
    },
    {
      "inputs": [
        {
          "internalType": "address",
          "name": "",
          "type": "address"
        }
      ],
      "name": "strategies",
      "outputs": [
        {
          "internalType": "address",
          "name": "",
          "type": "address"
        }
      ],
      "stateMutability": "view",
      "type": "function"
    },
    {
      "inputs": [
        {
          "internalType": "address",
          "name": "",
          "type": "address"
        }
      ],
      "name": "strategyBalances",
      "outputs": [
        {
          "internalType": "uint256",
          "name": "",
          "type": "uint256"
        }
      ],
      "stateMutability": "view",
      "type": "function"
    },
    {
      "inputs": [
        {
          "internalType": "address",
          "name": "newOwner",
          "type": "address"
        }
      ],
      "name": "transferOwnership",
      "outputs": [],
      "stateMutability": "nonpayable",
      "type": "function"
    },
    {
      "inputs": [],
      "name": "uniswapRouter",
      "outputs": [
        {
          "internalType": "contract IUniswapV2Router02",
          "name": "",
          "type": "address"
        }
      ],
      "stateMutability": "view",
      "type": "function"
    },
    {
      "inputs": [
        {
          "internalType": "address",
          "name": "",
          "type": "address"
        }
      ],
      "name": "vaults",
      "outputs": [
        {
          "internalType": "address",
          "name": "",
          "type": "address"
        }
      ],
      "stateMutability": "view",
      "type": "function"
    },
    {
      "inputs": [],
      "name": "weth",
      "outputs": [
        {
          "internalType": "contract IWETH",
          "name": "",
          "type": "address"
        }
      ],
      "stateMutability": "view",
      "type": "function"
    },
    {
      "inputs": [],
      "name": "yweth",
      "outputs": [
        {
          "internalType": "contract IYearnVault",
          "name": "",
          "type": "address"
        }
      ],
      "stateMutability": "view",
      "type": "function"
    },
    {
      "stateMutability": "payable",
      "type": "receive"
    },
    {
      "inputs": [],
      "name": "depositWETH",
      "outputs": [],
      "stateMutability": "payable",
      "type": "function"
    },
    {
      "inputs": [],
      "name": "depositAETH",
      "outputs": [],
      "stateMutability": "payable",
      "type": "function"
    },
    {
      "inputs": [
        {
          "internalType": "address",
          "name": "vault",
          "type": "address"
        },
        {
          "internalType": "address",
          "name": "strategy",
          "type": "address"
        },
        {
          "internalType": "address",
          "name": "exitToken",
          "type": "address"
        },
        {
          "internalType": "uint256",
          "name": "multiplier",
          "type": "uint256"
        },
        {
          "internalType": "address",
          "name": "yearnDepositToken",
          "type": "address"
        },
        {
          "internalType": "address",
          "name": "yearnVault",
          "type": "address"
        }
      ],
      "name": "addStrategy",
      "outputs": [],
      "stateMutability": "nonpayable",
      "type": "function"
    },
    {
      "inputs": [
        {
          "internalType": "address",
          "name": "vault",
          "type": "address"
        },
        {
          "internalType": "address",
          "name": "strategy",
          "type": "address"
        }
      ],
      "name": "delStrategy",
      "outputs": [],
      "stateMutability": "nonpayable",
      "type": "function"
    },
    {
      "inputs": [
        {
          "internalType": "address",
          "name": "_addr",
          "type": "address"
        }
      ],
      "name": "setOperator",
      "outputs": [],
      "stateMutability": "nonpayable",
      "type": "function"
    },
    {
      "inputs": [
        {
          "internalType": "address",
          "name": "vault",
          "type": "address"
        },
        {
          "internalType": "uint256",
          "name": "multiplier",
          "type": "uint256"
        }
      ],
      "name": "setMultiplier",
      "outputs": [],
      "stateMutability": "nonpayable",
      "type": "function"
    },
    {
      "inputs": [
        {
          "internalType": "uint256",
          "name": "amount",
          "type": "uint256"
        }
      ],
      "name": "withdrawETH",
      "outputs": [],
      "stateMutability": "nonpayable",
      "type": "function"
    },
    {
      "inputs": [
        {
          "internalType": "address",
          "name": "_user",
          "type": "address"
        },
        {
          "internalType": "uint256",
          "name": "_amount",
          "type": "uint256"
        }
      ],
      "name": "sendExitToken",
      "outputs": [],
      "stateMutability": "nonpayable",
      "type": "function"
    },
    {
      "inputs": [
        {
          "internalType": "uint256",
          "name": "amount",
          "type": "uint256"
        },
        {
          "internalType": "address",
          "name": "yearnVault",
          "type": "address"
        }
      ],
      "name": "depositTokenForStrategy",
      "outputs": [],
      "stateMutability": "nonpayable",
      "type": "function"
    },
    {
      "inputs": [
        {
          "internalType": "uint256",
          "name": "sharesToWithdraw",
          "type": "uint256"
        },
        {
          "internalType": "address",
          "name": "yearnVault",
          "type": "address"
        }
      ],
      "name": "withdrawForStrategy",
      "outputs": [],
      "stateMutability": "nonpayable",
      "type": "function"
    },
    {
      "inputs": [
        {
          "internalType": "uint256",
          "name": "amount",
          "type": "uint256"
        },
        {
          "internalType": "address",
          "name": "rewardToken",
          "type": "address"
        },
        {
          "internalType": "address",
          "name": "recipient",
          "type": "address"
        }
      ],
      "name": "buyForStrategy",
      "outputs": [],
      "stateMutability": "nonpayable",
      "type": "function"
    },
    {
      "inputs": [
        {
          "internalType": "uint256",
          "name": "_val",
          "type": "uint256"
        }
      ],
      "name": "setMinBuyFromAMM",
      "outputs": [],
      "stateMutability": "nonpayable",
      "type": "function"
    },
    {
      "inputs": [
        {
          "internalType": "address",
          "name": "stra",
          "type": "address"
        },
        {
          "internalType": "uint256",
          "name": "amount",
          "type": "uint256"
        }
      ],
      "name": "setStrategyBalance",
      "outputs": [],
      "stateMutability": "nonpayable",
      "type": "function"
    },
    {
      "inputs": [
        {
          "internalType": "uint256",
          "name": "amount",
          "type": "uint256"
        },
        {
          "internalType": "address",
          "name": "addr",
          "type": "address"
        }
      ],
      "name": "emergencyWithdrawETH",
      "outputs": [],
      "stateMutability": "nonpayable",
      "type": "function"
    },
    {
      "inputs": [
        {
          "internalType": "address",
          "name": "_tokenAddr",
          "type": "address"
        },
        {
          "internalType": "address",
          "name": "_to",
          "type": "address"
        },
        {
          "internalType": "uint256",
          "name": "_amount",
          "type": "uint256"
        }
      ],
      "name": "emergencyWithdrawERC20Tokens",
      "outputs": [],
      "stateMutability": "nonpayable",
      "type": "function"
    },
    {
      "inputs": [
        {
          "internalType": "address",
          "name": "vault",
          "type": "address"
        }
      ],
      "name": "getStrategy",
      "outputs": [
        {
          "internalType": "address",
          "name": "",
          "type": "address"
        }
      ],
      "stateMutability": "view",
      "type": "function"
    },
    {
      "inputs": [
        {
          "internalType": "address",
          "name": "stra",
          "type": "address"
        }
      ],
      "name": "strategyBalance",
      "outputs": [
        {
          "internalType": "uint256",
          "name": "",
          "type": "uint256"
        }
      ],
      "stateMutability": "view",
      "type": "function"
    }
  ],
  "bytecode": "0x6080604052600019600155600280546001600160a01b031990811673c02aaa39b223fe8d0a0e5c4f27ead9083c756cc217909155600380548216733b62f3820e0b035cc4ad602dece6d796bc32532517905560048054821673aa17a236f2badc98ddc0cf999abb47d47fc0a6cf179055600580548216737a250d5630b4cf539739df2c5dacb4c659f2488d17905560068054821673a9fe4601811213c340e850ea305481aff02f5b2817905560078054821673d77700fc3c78d1cb3acb1a9eac891ff59bc7946d1790556008805490911673a96a65c051bf88b4095ee1f2451c2a9d43f53ae2179055670de0b6b3a7640000600f553480156200010157600080fd5b5060006200010e62000300565b600080546001600160a01b0319166001600160a01b0383169081178255604051929350917f8be0079c531659141344cd1fd0a4f28419497f9722a3daafe3b4186f6b6457e0908290a3506002546005546001546040805163095ea7b360e01b81526001600160a01b039384166004820152602481019290925251919092169163095ea7b39160448083019260209291908290030181600087803b158015620001b557600080fd5b505af1158015620001ca573d6000803e3d6000fd5b505050506040513d6020811015620001e157600080fd5b50506002546006546001546040805163095ea7b360e01b81526001600160a01b039384166004820152602481019290925251919092169163095ea7b39160448083019260209291908290030181600087803b1580156200024057600080fd5b505af115801562000255573d6000803e3d6000fd5b505050506040513d60208110156200026c57600080fd5b50506003546005546001546040805163095ea7b360e01b81526001600160a01b039384166004820152602481019290925251919092169163095ea7b39160448083019260209291908290030181600087803b158015620002cb57600080fd5b505af1158015620002e0573d6000803e3d6000fd5b505050506040513d6020811015620002f757600080fd5b50620003049050565b3390565b611e4080620003146000396000f3fe6080604052600436106101f25760003560e01c806389257a121161010d578063ac524f3d116100a0578063beefbfd31161006f578063beefbfd3146106a1578063d8a7149c146106d4578063f14210a61461070d578063f2fde38b14610737578063f8806a131461076a576101f9565b8063ac524f3d146105bd578063b3ab15fb146105f0578063b3eb68fd14610623578063b3f5e0081461065e576101f9565b8063a3c1295b116100dc578063a3c1295b14610534578063a52a0fd71461056d578063a622ee7c14610575578063aaa27abf146105a8576101f9565b806389257a12146104c25780638da5cb5b146104d75780638f014f18146104ec5780639c54853914610501576101f9565b8063570ca73511610185578063715018a611610154578063715018a61461041e5780637319d65c14610433578063735de9f71461046c5780637fc0953114610481576101f9565b8063570ca735146103325780635f23c2c01461034757806368ee82a7146103a05780636af926d4146103e5576101f9565b80632da620a4116101c15780632da620a4146102a457806339ebf823146102d55780633fc8cef31461030857806344a706861461031d576101f9565b806315945006146101fe5780631de3df2c1461023957806320b1981d1461024157806329b234cb1461026b576101f9565b366101f957005b600080fd5b34801561020a57600080fd5b506102376004803603604081101561022157600080fd5b50803590602001356001600160a01b031661079d565b005b610237610843565b34801561024d57600080fd5b506102376004803603602081101561026457600080fd5b50356108ae565b34801561027757600080fd5b506102376004803603604081101561028e57600080fd5b506001600160a01b03813516906020013561090b565b3480156102b057600080fd5b506102b961097f565b604080516001600160a01b039092168252519081900360200190f35b3480156102e157600080fd5b506102b9600480360360208110156102f857600080fd5b50356001600160a01b031661098e565b34801561031457600080fd5b506102b96109a9565b34801561032957600080fd5b506102b96109b8565b34801561033e57600080fd5b506102b96109c7565b34801561035357600080fd5b50610237600480360360c081101561036a57600080fd5b506001600160a01b03813581169160208101358216916040820135811691606081013591608082013581169160a00135166109d6565b3480156103ac57600080fd5b506103d3600480360360208110156103c357600080fd5b50356001600160a01b0316610b7c565b60408051918252519081900360200190f35b3480156103f157600080fd5b506102376004803603604081101561040857600080fd5b506001600160a01b038135169060200135610b8e565b34801561042a57600080fd5b50610237610d0d565b34801561043f57600080fd5b506102376004803603604081101561045657600080fd5b506001600160a01b038135169060200135610daf565b34801561047857600080fd5b506102b9610e8b565b34801561048d57600080fd5b50610237600480360360608110156104a457600080fd5b508035906001600160a01b0360208201358116916040013516610e9a565b3480156104ce57600080fd5b506102b9611391565b3480156104e357600080fd5b506102b96113a0565b3480156104f857600080fd5b506102b96113af565b34801561050d57600080fd5b506102b96004803603602081101561052457600080fd5b50356001600160a01b03166113be565b34801561054057600080fd5b506102376004803603604081101561055757600080fd5b50803590602001356001600160a01b03166113d9565b6102376114bf565b34801561058157600080fd5b506102b96004803603602081101561059857600080fd5b50356001600160a01b0316611579565b3480156105b457600080fd5b506103d3611594565b3480156105c957600080fd5b506103d3600480360360208110156105e057600080fd5b50356001600160a01b031661159a565b3480156105fc57600080fd5b506102376004803603602081101561061357600080fd5b50356001600160a01b03166115ac565b34801561062f57600080fd5b506102376004803603604081101561064657600080fd5b506001600160a01b0381358116916020013516611626565b34801561066a57600080fd5b506102376004803603606081101561068157600080fd5b506001600160a01b03813581169160208101359091169060400135611716565b3480156106ad57600080fd5b506103d3600480360360208110156106c457600080fd5b50356001600160a01b03166117c5565b3480156106e057600080fd5b50610237600480360360408110156106f757600080fd5b50803590602001356001600160a01b03166117e0565b34801561071957600080fd5b506102376004803603602081101561073057600080fd5b50356119ca565b34801561074357600080fd5b506102376004803603602081101561075a57600080fd5b50356001600160a01b0316611a4d565b34801561077657600080fd5b506102b96004803603602081101561078d57600080fd5b50356001600160a01b0316611b45565b6107a5611b63565b6000546001600160a01b039081169116146107f5576040805162461bcd60e51b81526020600482018190526024820152600080516020611deb833981519152604482015290519081900360640190fd5b6001600160a01b03811661080857600080fd5b6040516001600160a01b0382169083156108fc029084906000818181858888f1935050505015801561083e573d6000803e3d6000fd5b505050565b600260009054906101000a90046001600160a01b03166001600160a01b031663d0e30db0346040518263ffffffff1660e01b81526004016000604051808303818588803b15801561089357600080fd5b505af11580156108a7573d6000803e3d6000fd5b5050505050565b6108b6611b63565b6000546001600160a01b03908116911614610906576040805162461bcd60e51b81526020600482018190526024820152600080516020611deb833981519152604482015290519081900360640190fd5b600f55565b610913611b63565b6000546001600160a01b03908116911614610963576040805162461bcd60e51b81526020600482018190526024820152600080516020611deb833981519152604482015290519081900360640190fd5b6001600160a01b039091166000908152600d6020526040902055565b6003546001600160a01b031681565b6009602052600090815260409020546001600160a01b031681565b6002546001600160a01b031681565b6007546001600160a01b031681565b600e546001600160a01b031681565b6109de611b63565b6000546001600160a01b03908116911614610a2e576040805162461bcd60e51b81526020600482018190526024820152600080516020611deb833981519152604482015290519081900360640190fd5b6001600160a01b03861615801590610a4e57506001600160a01b03851615155b610a85576040805162461bcd60e51b815260206004820152600360248201526203078360ec1b604482015290519081900360640190fd5b6001600160a01b03858116600081815260096020908152604080832080546001600160a01b03199081168d8816908117909255908452600a835281842080548216909517909455600b8252808320805490941689861617909355600c905220849055821615610b7457816001600160a01b031663095ea7b3826001546040518363ffffffff1660e01b815260040180836001600160a01b0316815260200182815260200192505050602060405180830381600087803b158015610b4757600080fd5b505af1158015610b5b573d6000803e3d6000fd5b505050506040513d6020811015610b7157600080fd5b50505b505050505050565b600d6020526000908152604090205481565b336000908152600a60205260409020546001600160a01b031615801590610bcc5750336000908152600b60205260409020546001600160a01b031615155b610c0f576040805162461bcd60e51b815260206004820152600f60248201526e08595e1a5d18589b19481d985d5b1d608a1b604482015290519081900360640190fd5b336000908152600c6020526040812054610c3e90670de0b6b3a764000090610c38908590611b67565b90611bc9565b905060008111610c80576040805162461bcd60e51b81526020600482015260086024820152670c08185b5bdd5b9d60c21b604482015290519081900360640190fd5b336000908152600b6020908152604080832054815163a9059cbb60e01b81526001600160a01b038881166004830152602482018790529251919092169363a9059cbb93604480850194919392918390030190829087803b158015610ce357600080fd5b505af1158015610cf7573d6000803e3d6000fd5b505050506040513d60208110156108a757600080fd5b610d15611b63565b6000546001600160a01b03908116911614610d65576040805162461bcd60e51b81526020600482018190526024820152600080516020611deb833981519152604482015290519081900360640190fd5b600080546040516001600160a01b03909116907f8be0079c531659141344cd1fd0a4f28419497f9722a3daafe3b4186f6b6457e0908390a3600080546001600160a01b0319169055565b610db76113a0565b6001600160a01b0316336001600160a01b03161480610de05750600e546001600160a01b031633145b610e1a576040805162461bcd60e51b815260206004820152600660248201526510b7bbb732b960d11b604482015290519081900360640190fd5b6001600160a01b038281166000908152600a602052604090205416610e6f576040805162461bcd60e51b8152602060048201526006602482015265085d985d5b1d60d21b604482015290519081900360640190fd5b6001600160a01b039091166000908152600c6020526040902055565b6005546001600160a01b031681565b336000908152600960205260409020546001600160a01b0316610ef0576040805162461bcd60e51b815260206004820152600960248201526821737472617465677960b81b604482015290519081900360640190fd5b6060806000859050600f54861015610fbb57604080516003808252608082019092529060208201606080368337505060025482519295506001600160a01b031691859150600090610f3d57fe5b6001600160a01b039283166020918202929092010152600354845191169084906001908110610f6857fe5b60200260200101906001600160a01b031690816001600160a01b0316815250508483600281518110610f9657fe5b60200260200101906001600160a01b031690816001600160a01b031681525050611190565b6040805160028082526060820183529091602083019080368337505060035482519295506001600160a01b031691859150600090610ff557fe5b60200260200101906001600160a01b031690816001600160a01b031681525050848360018151811061102357fe5b6001600160a01b0392831660209182029290920181019190915260025460408051632e1a7d4d60e01b8152600481018b905290519190931692632e1a7d4d9260248083019391928290030181600087803b15801561108057600080fd5b505af1158015611094573d6000803e3d6000fd5b505050506040513d60208110156110aa57600080fd5b50506007546040805162322d2160e81b81526004810189905290516001600160a01b039092169163322d2100916024808201926020929091908290030181600087803b1580156110f957600080fd5b505af115801561110d573d6000803e3d6000fd5b505050506040513d602081101561112357600080fd5b505160075460408051636cb504a560e11b81526004810184905290519293506001600160a01b039091169163d96a094a918991602480830192600092919082900301818588803b15801561117657600080fd5b505af115801561118a573d6000803e3d6000fd5b50505050505b6005546040516338ed173960e01b8152600481018381526001602483018190526001600160a01b038881166064850152426084850181905260a060448601908152895160a4870152895192909616956338ed17399588958b948d9493919260c401906020808801910280838360005b838110156112175781810151838201526020016111ff565b505050509050019650505050505050600060405180830381600087803b15801561124057600080fd5b505af1158015611254573d6000803e3d6000fd5b505050506040513d6000823e601f3d908101601f19168201604052602081101561127d57600080fd5b810190808051604051939291908464010000000082111561129d57600080fd5b9083019060208201858111156112b257600080fd5b82518660208202830111640100000000821117156112cf57600080fd5b82525081516020918201928201910280838360005b838110156112fc5781810151838201526020016112e4565b505050509050016040525050509150836001600160a01b031663246132f98360018551038151811061132a57fe5b602002602001015160026040518363ffffffff1660e01b81526004018083815260200182815260200192505050600060405180830381600087803b15801561137157600080fd5b505af1158015611385573d6000803e3d6000fd5b50505050505050505050565b6004546001600160a01b031681565b6000546001600160a01b031690565b6006546001600160a01b031681565b600b602052600090815260409020546001600160a01b031681565b336000908152600960205260409020546001600160a01b031661142f576040805162461bcd60e51b815260206004820152600960248201526821737472617465677960b81b604482015290519081900360640190fd5b336000908152600d6020526040902054819061144b9084611c0b565b336000908152600d6020526040808220929092558151632e1a7d4d60e01b81526004810186905291516001600160a01b03841692632e1a7d4d92602480830193919282900301818387803b1580156114a257600080fd5b505af11580156114b6573d6000803e3d6000fd5b50505050505050565b600854604080518082018252348082526000602083018190528351630b4c7e4d60e01b81526001600160a01b0390951694630b4c7e4d9492939260049091019081908490808383875b83811015611520578181015183820152602001611508565b50505050905001828152602001925050506020604051808303818588803b15801561154a57600080fd5b505af115801561155e573d6000803e3d6000fd5b50505050506040513d602081101561157557600080fd5b5050565b600a602052600090815260409020546001600160a01b031681565b600f5481565b600c6020526000908152604090205481565b6115b4611b63565b6000546001600160a01b03908116911614611604576040805162461bcd60e51b81526020600482018190526024820152600080516020611deb833981519152604482015290519081900360640190fd5b600e80546001600160a01b0319166001600160a01b0392909216919091179055565b61162e611b63565b6000546001600160a01b0390811691161461167e576040805162461bcd60e51b81526020600482018190526024820152600080516020611deb833981519152604482015290519081900360640190fd5b6001600160a01b0382161580159061169e57506001600160a01b03811615155b6116d5576040805162461bcd60e51b815260206004820152600360248201526203078360ec1b604482015290519081900360640190fd5b6001600160a01b03908116600090815260096020908152604080832080546001600160a01b0319908116909155949093168252600a90522080549091169055565b61171e611b63565b6000546001600160a01b0390811691161461176e576040805162461bcd60e51b81526020600482018190526024820152600080516020611deb833981519152604482015290519081900360640190fd5b826001600160a01b031663a9059cbb83836040518363ffffffff1660e01b815260040180836001600160a01b0316815260200182815260200192505050602060405180830381600087803b158015610ce357600080fd5b6001600160a01b03166000908152600d602052604090205490565b336000908152600960205260409020546001600160a01b0316611836576040805162461bcd60e51b815260206004820152600960248201526821737472617465677960b81b604482015290519081900360640190fd5b604080516370a0823160e01b8152306004820152905182916000916001600160a01b038416916370a08231916024808301926020929190829003018186803b15801561188157600080fd5b505afa158015611895573d6000803e3d6000fd5b505050506040513d60208110156118ab57600080fd5b50516040805163b6b55f2560e01b81526004810187905290519192506001600160a01b0384169163b6b55f259160248082019260009290919082900301818387803b1580156118f957600080fd5b505af115801561190d573d6000803e3d6000fd5b50505050600061199682846001600160a01b03166370a08231306040518263ffffffff1660e01b815260040180826001600160a01b0316815260200191505060206040518083038186803b15801561196457600080fd5b505afa158015611978573d6000803e3d6000fd5b505050506040513d602081101561198e57600080fd5b505190611c0b565b336000908152600d60205260409020549091506119b39082611c4d565b336000908152600d60205260409020555050505050565b336000908152600960205260409020546001600160a01b0316611a20576040805162461bcd60e51b815260206004820152600960248201526821737472617465677960b81b604482015290519081900360640190fd5b604051339082156108fc029083906000818181858888f19350505050158015611575573d6000803e3d6000fd5b611a55611b63565b6000546001600160a01b03908116911614611aa5576040805162461bcd60e51b81526020600482018190526024820152600080516020611deb833981519152604482015290519081900360640190fd5b6001600160a01b038116611aea5760405162461bcd60e51b8152600401808060200182810382526026815260200180611da46026913960400191505060405180910390fd5b600080546040516001600160a01b03808516939216917f8be0079c531659141344cd1fd0a4f28419497f9722a3daafe3b4186f6b6457e091a3600080546001600160a01b0319166001600160a01b0392909216919091179055565b6001600160a01b039081166000908152600a60205260409020541690565b3390565b600082611b7657506000611bc3565b82820282848281611b8357fe5b0414611bc05760405162461bcd60e51b8152600401808060200182810382526021815260200180611dca6021913960400191505060405180910390fd5b90505b92915050565b6000611bc083836040518060400160405280601a81526020017f536166654d6174683a206469766973696f6e206279207a65726f000000000000815250611ca7565b6000611bc083836040518060400160405280601e81526020017f536166654d6174683a207375627472616374696f6e206f766572666c6f770000815250611d49565b600082820183811015611bc0576040805162461bcd60e51b815260206004820152601b60248201527f536166654d6174683a206164646974696f6e206f766572666c6f770000000000604482015290519081900360640190fd5b60008183611d335760405162461bcd60e51b81526004018080602001828103825283818151815260200191508051906020019080838360005b83811015611cf8578181015183820152602001611ce0565b50505050905090810190601f168015611d255780820380516001836020036101000a031916815260200191505b509250505060405180910390fd5b506000838581611d3f57fe5b0495945050505050565b60008184841115611d9b5760405162461bcd60e51b8152602060048201818152835160248401528351909283926044909101919085019080838360008315611cf8578181015183820152602001611ce0565b50505090039056fe4f776e61626c653a206e6577206f776e657220697320746865207a65726f2061646472657373536166654d6174683a206d756c7469706c69636174696f6e206f766572666c6f774f776e61626c653a2063616c6c6572206973206e6f7420746865206f776e6572a264697066735822122045c33cce26b227f47c802b42b971215ec18998881f700535f53a08eb7e56c87c64736f6c634300060c0033",
  "immutableReferences": {},
  "source": "pragma solidity 0.6.12;\n\n// SPDX-License-Identifier: MIT\n\nimport \"./SafeMath.sol\";\nimport \"./Ownable.sol\";\n\ninterface StandardToken {\n    function balanceOf(address account) external view returns (uint256);\n    function transfer(address recipient, uint256 amount) external returns (bool);\n    function transferFrom(address sender, address recipient, uint256 amount) external returns (bool);\n\tfunction approve(address spender, uint256 amount) external returns (bool);\n}\n\ninterface IUniswapV2Router02 {\n    function swapExactTokensForTokens(\n        uint amountIn,\n        uint amountOutMin,\n        address[] calldata path,\n        address to,\n        uint deadline\n    ) external returns (uint[] memory amounts);\n    \n    function swapExactETHForTokens(uint amountOutMin, address[] calldata path, address to, uint deadline)\n        external\n        payable\n        returns (uint[] memory amounts);\n        \n    function swapExactTokensForETH(uint amountIn, uint amountOutMin, address[] calldata path, address to, uint deadline)\n        external\n        returns (uint[] memory amounts);\n}\n\ninterface IYearnVault{\n    function balanceOf(address account) external view returns (uint256);\n    function withdraw(uint256 amount) external;\n    function pricePerShare() external view returns(uint256);\n    function deposit(uint256 _amount) external;\n    //function deposit(uint256 _amount, address recipient) external returns(uint256);\n}\n\ninterface IWETH is StandardToken{\n    function withdraw(uint256 amount) external returns(uint256);\n    function deposit() external payable;\n}\n\ninterface IStakeAndYield {\n    function getRewardToken() external view returns(address);\n    function totalSupply(uint256 stakeType) external view returns(uint256);\n    function notifyRewardAmount(uint256 reward, uint256 stakeType) external;\n}\n\ninterface IAutomaticMarketMaker {\n    function buy(uint256 _tokenAmount) external payable;\n    function sell(uint256 tokenAmount, uint256 _etherAmount) external;\n    function calculatePurchaseReturn(uint256 etherAmount) external returns (uint256);\n    function calculateSaleReturn(uint256 tokenAmount) external returns (uint256);\n    function withdrawPayments(address payable payee) external;\n}\n\ninterface ICurve{\n    function get_virtual_price() external view returns(uint256);\n    function add_liquidity(uint256[2] memory amounts, uint256 min_amounts) external payable returns(uint256);\n    function remove_liquidity_one_coin(uint256 _token_amount, int128 i, uint256 _min_amount) external returns(uint256);\n}\n\n\ncontract Controller is Ownable {\n    using SafeMath for uint256;\n    uint256 MAX_INT = type(uint256).max;\n    \n    IWETH public weth = IWETH(0xC02aaA39b223FE8D0A0e5C4F27eAD9083C756Cc2);\n    address public DEUS = 0x3b62F3820e0B035cc4aD602dECe6d796BC325325;\n    address public AETH = 0xaA17A236F2bAdc98DDc0Cf999AbB47D47Fc0A6Cf;\n\n    IUniswapV2Router02 public uniswapRouter = IUniswapV2Router02(\n    \t0x7a250d5630B4cF539739dF2C5dAcb4c659F2488D\n    );\n\n    IYearnVault public yweth = IYearnVault(0xa9fE4601811213c340e850ea305481afF02f5b28);\n    IAutomaticMarketMaker public AMM = IAutomaticMarketMaker(0xD77700fC3C78d1Cb3aCb1a9eAC891ff59bC7946D);\n    ICurve curve = ICurve(0xA96A65c051bF88B4095Ee1f2451C2A9d43F53Ae2);\n\n    // strategy => vault\n    mapping (address => address) public strategies;\n\n    // vault => strategy\n    mapping (address => address) public vaults;\n\n    // vault => exitToken\n    mapping (address => address) public exitTokens;\n\n    // vault => multiplier\n    mapping (address => uint256) public multipliers;\n\n    mapping (address => uint256) public strategyBalances;\n\n    address public operator;\n\n    uint256 public minBuyFromAMM = 1 ether;\n\n\n\n    modifier onlyOwnerOrOperator(){\n        require(\n            msg.sender == owner() || msg.sender == operator,\n            \"!owner\"\n        );\n        _;\n    }\n\n    constructor() public{\n   \t\tStandardToken(weth).approve(address(uniswapRouter), MAX_INT);\n\t\tStandardToken(weth).approve(address(yweth), MAX_INT);\n        StandardToken(DEUS).approve(address(uniswapRouter), MAX_INT);\n    }\n\n    modifier onlyStrategy(){\n    \trequire(strategies[msg.sender] != address(0), \"!strategy\");\n    \t_;\n    }\n\n    modifier onlyVault(){\n    \trequire(vaults[msg.sender] != address(0), \"!vault\");\n    \t_;\n    }\n\n    modifier onlyExitableVault(){\n        require(vaults[msg.sender] != address(0) &&\n            exitTokens[msg.sender] != address(0)\n            , \"!exitable vault\");\n        _;\n    }\n\n    receive() external payable {\n\t}\n\n    function depositWETH() external payable{\n        weth.deposit{value: msg.value}();\n    }\n\n    function depositAETH() external payable{\n        curve.add_liquidity{value: msg.value}([msg.value, 0],\n            0\n        );\n    }\n\n\tfunction addStrategy(address vault, address strategy, \n        address exitToken, uint256 multiplier,\n        address yearnDepositToken,\n        address yearnVault\n        ) external onlyOwner{\n\t\trequire(vault != address(0) && strategy!=address(0), \"0x0\");\n\t\tstrategies[strategy] = vault;\n\t\tvaults[vault] = strategy;\n\n        exitTokens[vault] = exitToken;\n        multipliers[vault] = multiplier;\n\n        if(yearnDepositToken != address(0)){\n\t\t  StandardToken(yearnDepositToken).approve(yearnVault, MAX_INT);\n        }\n\t}\n\n\tfunction delStrategy(address vault, address strategy) external onlyOwner{\n\t\trequire(vault != address(0) && strategy!=address(0), \"0x0\");\n\t\tstrategies[strategy] = address(0);\n\t\tvaults[vault] = address(0);\n\t}\n\n    function setOperator(address _addr) public onlyOwner{\n        operator = _addr;\n    }\n\n    function setMultiplier(\n        address vault, \n        uint256 multiplier\n    ) external onlyOwnerOrOperator{\n        require(vaults[vault] != address(0), \"!vault\");\n        multipliers[vault] = multiplier;\n    }\n\n\tfunction withdrawETH(uint256 amount) public onlyStrategy{\n\t\tmsg.sender.transfer(amount);\n\t}\n\n    function sendExitToken(\n        address _user,\n        uint256 _amount\n    ) public onlyExitableVault{\n        uint256 amount = _amount.mul(multipliers[msg.sender]).div(1 ether);\n        require(amount > 0, \"0 amount\");\n        StandardToken(exitTokens[msg.sender]).transfer(\n            _user, amount\n        );\n    }\n\n\tfunction depositTokenForStrategy(\n        uint256 amount, \n        address yearnVault\n    ) public onlyStrategy{\n        IYearnVault v = IYearnVault(yearnVault);\n        uint256 balanceBefore = v.balanceOf(address(this));\n        v.deposit(amount);\n        uint256 balance = v.balanceOf(address(this)).sub(\n            balanceBefore\n        );\n        strategyBalances[msg.sender] = strategyBalances[msg.sender].add(balance);\n\t}\n\n    function withdrawForStrategy(\n        uint256 sharesToWithdraw, \n        address yearnVault\n        ) public onlyStrategy{\n\n        IYearnVault v = IYearnVault(yearnVault);\n        strategyBalances[msg.sender] = strategyBalances[msg.sender].sub(sharesToWithdraw);\n        v.withdraw(sharesToWithdraw);\n    }\n\n\tfunction buyForStrategy(\n\t\tuint256 amount,\n        address rewardToken,\n        address recipient\n    ) public onlyStrategy{\n    \taddress[] memory path;\n\n        uint256[] memory amounts;\n        uint256 tokenAmount = amount;\n        if(amount < minBuyFromAMM){\n            path = new address[](3);\n        \tpath[0] = address(weth);\n        \tpath[1] = DEUS;\n        \tpath[2] = rewardToken;\n        }else{\n            path = new address[](2);\n            path[0] = DEUS;\n            path[1] = rewardToken;\n\n            weth.withdraw(amount);\n            tokenAmount = AMM.calculatePurchaseReturn(amount);\n            AMM.buy{value: amount}(tokenAmount);\n        }\n\n        amounts = uniswapRouter.swapExactTokensForTokens(\n            tokenAmount, 1, path, recipient, block.timestamp\n        );\n\n    \tIStakeAndYield(recipient).notifyRewardAmount(\n    \t\tamounts[amounts.length-1], \n    \t\t2 // yield\n    \t);\n\t}\n\n    function setMinBuyFromAMM(uint256 _val) public onlyOwner{\n        minBuyFromAMM = _val;\n    }\n\n    function setStrategyBalance(address stra, uint256 amount) public onlyOwner{\n        strategyBalances[stra] = amount;\n    }\n\n\tfunction emergencyWithdrawETH(uint256 amount, address addr) public onlyOwner{\n\t\trequire(addr != address(0));\n\t\tpayable(addr).transfer(amount);\n\t}\n\n\tfunction emergencyWithdrawERC20Tokens(address _tokenAddr, address _to, uint _amount) public onlyOwner {\n        StandardToken(_tokenAddr).transfer(_to, _amount);\n    }\n\n    function getStrategy(address vault) public view returns(address){\n        return vaults[vault];\n    }\n\n    function strategyBalance(address stra) public view returns(uint256){\n        return strategyBalances[stra];\n    }\n\n}\n",
  "sourcePath": "/home/projects/projects/deus/stakeAndYield/contracts/Controller.sol",
  "compiler": {
    "name": "solc",
    "version": "0.6.12+commit.27d51765.Emscripten.clang"
  },
  "schemaVersion": "3.3.2",
  "updatedAt": "2021-06-09T08:22:41.644Z",
  "networkType": "ethereum",
  "devdoc": {
    "kind": "dev",
    "methods": {
      "owner()": {
        "details": "Returns the address of the current owner."
      },
      "renounceOwnership()": {
        "details": "Leaves the contract without owner. It will not be possible to call `onlyOwner` functions anymore. Can only be called by the current owner. NOTE: Renouncing ownership will leave the contract without an owner, thereby removing any functionality that is only available to the owner."
      },
      "transferOwnership(address)": {
        "details": "Transfers ownership of the contract to a new account (`newOwner`). Can only be called by the current owner."
      }
    },
    "version": 1
  },
  "userdoc": {
    "kind": "user",
    "methods": {},
    "version": 1
  }
}