{
  "contractName": "StakeAndYield",
  "abi": [
    {
      "inputs": [
        {
          "internalType": "address",
          "name": "_stakedToken",
          "type": "address"
        },
        {
          "internalType": "address",
          "name": "_rewardToken",
          "type": "address"
        },
        {
          "internalType": "address",
          "name": "_yieldRewardToken",
          "type": "address"
        },
        {
          "internalType": "uint256",
          "name": "_daoShare",
          "type": "uint256"
        },
        {
          "internalType": "address",
          "name": "_daoWallet",
          "type": "address"
        },
        {
          "internalType": "address",
          "name": "_controller",
          "type": "address"
        },
        {
          "internalType": "bool",
          "name": "_exitable",
          "type": "bool"
        }
      ],
      "stateMutability": "nonpayable",
      "type": "constructor"
    },
    {
      "anonymous": false,
      "inputs": [
        {
          "indexed": false,
          "internalType": "address",
          "name": "user",
          "type": "address"
        },
        {
          "indexed": false,
          "internalType": "uint256",
          "name": "amount",
          "type": "uint256"
        },
        {
          "indexed": false,
          "internalType": "uint256",
          "name": "stakeType",
          "type": "uint256"
        }
      ],
      "name": "Deposit",
      "type": "event"
    },
    {
      "anonymous": false,
      "inputs": [
        {
          "indexed": false,
          "internalType": "address",
          "name": "user",
          "type": "address"
        },
        {
          "indexed": false,
          "internalType": "uint256",
          "name": "amount",
          "type": "uint256"
        }
      ],
      "name": "EmergencyWithdraw",
      "type": "event"
    },
    {
      "anonymous": false,
      "inputs": [
        {
          "indexed": false,
          "internalType": "address",
          "name": "user",
          "type": "address"
        },
        {
          "indexed": false,
          "internalType": "uint256",
          "name": "amount",
          "type": "uint256"
        },
        {
          "indexed": false,
          "internalType": "uint256",
          "name": "stakeType",
          "type": "uint256"
        }
      ],
      "name": "Exit",
      "type": "event"
    },
    {
      "anonymous": false,
      "inputs": [
        {
          "indexed": true,
          "internalType": "address",
          "name": "previousOwner",
          "type": "address"
        },
        {
          "indexed": true,
          "internalType": "address",
          "name": "newOwner",
          "type": "address"
        }
      ],
      "name": "OwnershipTransferred",
      "type": "event"
    },
    {
      "anonymous": false,
      "inputs": [
        {
          "indexed": false,
          "internalType": "address",
          "name": "user",
          "type": "address"
        },
        {
          "indexed": false,
          "internalType": "uint256",
          "name": "amount",
          "type": "uint256"
        },
        {
          "indexed": false,
          "internalType": "uint256",
          "name": "stakeType",
          "type": "uint256"
        }
      ],
      "name": "RewardClaimed",
      "type": "event"
    },
    {
      "anonymous": false,
      "inputs": [
        {
          "indexed": false,
          "internalType": "address",
          "name": "user",
          "type": "address"
        },
        {
          "indexed": false,
          "internalType": "uint256",
          "name": "amount",
          "type": "uint256"
        },
        {
          "indexed": false,
          "internalType": "uint256",
          "name": "stakeType",
          "type": "uint256"
        }
      ],
      "name": "Unfreeze",
      "type": "event"
    },
    {
      "anonymous": false,
      "inputs": [
        {
          "indexed": false,
          "internalType": "address",
          "name": "user",
          "type": "address"
        },
        {
          "indexed": false,
          "internalType": "uint256",
          "name": "amount",
          "type": "uint256"
        },
        {
          "indexed": false,
          "internalType": "uint256",
          "name": "stakeType",
          "type": "uint256"
        }
      ],
      "name": "Withdraw",
      "type": "event"
    },
    {
      "inputs": [],
      "name": "EXIT_PERIOD",
      "outputs": [
        {
          "internalType": "uint256",
          "name": "",
          "type": "uint256"
        }
      ],
      "stateMutability": "view",
      "type": "function"
    },
    {
      "inputs": [],
      "name": "PERIOD",
      "outputs": [
        {
          "internalType": "uint256",
          "name": "",
          "type": "uint256"
        }
      ],
      "stateMutability": "view",
      "type": "function"
    },
    {
      "inputs": [],
      "name": "_totalBurned",
      "outputs": [
        {
          "internalType": "uint256",
          "name": "",
          "type": "uint256"
        }
      ],
      "stateMutability": "view",
      "type": "function"
    },
    {
      "inputs": [],
      "name": "_totalExit",
      "outputs": [
        {
          "internalType": "uint256",
          "name": "",
          "type": "uint256"
        }
      ],
      "stateMutability": "view",
      "type": "function"
    },
    {
      "inputs": [],
      "name": "_totalSupply",
      "outputs": [
        {
          "internalType": "uint256",
          "name": "",
          "type": "uint256"
        }
      ],
      "stateMutability": "view",
      "type": "function"
    },
    {
      "inputs": [],
      "name": "_totalSupplyYield",
      "outputs": [
        {
          "internalType": "uint256",
          "name": "",
          "type": "uint256"
        }
      ],
      "stateMutability": "view",
      "type": "function"
    },
    {
      "inputs": [],
      "name": "_totalYieldWithdrawed",
      "outputs": [
        {
          "internalType": "uint256",
          "name": "",
          "type": "uint256"
        }
      ],
      "stateMutability": "view",
      "type": "function"
    },
    {
      "inputs": [],
      "name": "allowEmergencyWithdraw",
      "outputs": [
        {
          "internalType": "bool",
          "name": "",
          "type": "bool"
        }
      ],
      "stateMutability": "view",
      "type": "function"
    },
    {
      "inputs": [],
      "name": "controller",
      "outputs": [
        {
          "internalType": "contract IController",
          "name": "",
          "type": "address"
        }
      ],
      "stateMutability": "view",
      "type": "function"
    },
    {
      "inputs": [],
      "name": "daoShare",
      "outputs": [
        {
          "internalType": "uint256",
          "name": "",
          "type": "uint256"
        }
      ],
      "stateMutability": "view",
      "type": "function"
    },
    {
      "inputs": [],
      "name": "daoWallet",
      "outputs": [
        {
          "internalType": "address",
          "name": "",
          "type": "address"
        }
      ],
      "stateMutability": "view",
      "type": "function"
    },
    {
      "inputs": [],
      "name": "exitRewardDenominator",
      "outputs": [
        {
          "internalType": "uint256",
          "name": "",
          "type": "uint256"
        }
      ],
      "stateMutability": "view",
      "type": "function"
    },
    {
      "inputs": [],
      "name": "exitable",
      "outputs": [
        {
          "internalType": "bool",
          "name": "",
          "type": "bool"
        }
      ],
      "stateMutability": "view",
      "type": "function"
    },
    {
      "inputs": [],
      "name": "lastUpdateTime",
      "outputs": [
        {
          "internalType": "uint256",
          "name": "",
          "type": "uint256"
        }
      ],
      "stateMutability": "view",
      "type": "function"
    },
    {
      "inputs": [],
      "name": "lastUpdatedBlock",
      "outputs": [
        {
          "internalType": "uint256",
          "name": "",
          "type": "uint256"
        }
      ],
      "stateMutability": "view",
      "type": "function"
    },
    {
      "inputs": [],
      "name": "operator",
      "outputs": [
        {
          "internalType": "address",
          "name": "",
          "type": "address"
        }
      ],
      "stateMutability": "view",
      "type": "function"
    },
    {
      "inputs": [],
      "name": "owner",
      "outputs": [
        {
          "internalType": "address",
          "name": "",
          "type": "address"
        }
      ],
      "stateMutability": "view",
      "type": "function"
    },
    {
      "inputs": [],
      "name": "periodFinish",
      "outputs": [
        {
          "internalType": "uint256",
          "name": "",
          "type": "uint256"
        }
      ],
      "stateMutability": "view",
      "type": "function"
    },
    {
      "inputs": [],
      "name": "renounceOwnership",
      "outputs": [],
      "stateMutability": "nonpayable",
      "type": "function"
    },
    {
      "inputs": [],
      "name": "rewardRate",
      "outputs": [
        {
          "internalType": "uint256",
          "name": "",
          "type": "uint256"
        }
      ],
      "stateMutability": "view",
      "type": "function"
    },
    {
      "inputs": [],
      "name": "rewardRateYield",
      "outputs": [
        {
          "internalType": "uint256",
          "name": "",
          "type": "uint256"
        }
      ],
      "stateMutability": "view",
      "type": "function"
    },
    {
      "inputs": [],
      "name": "rewardTillNowPerToken",
      "outputs": [
        {
          "internalType": "uint256",
          "name": "",
          "type": "uint256"
        }
      ],
      "stateMutability": "view",
      "type": "function"
    },
    {
      "inputs": [],
      "name": "rewardToken",
      "outputs": [
        {
          "internalType": "contract StandardToken",
          "name": "",
          "type": "address"
        }
      ],
      "stateMutability": "view",
      "type": "function"
    },
    {
      "inputs": [],
      "name": "scale",
      "outputs": [
        {
          "internalType": "uint256",
          "name": "",
          "type": "uint256"
        }
      ],
      "stateMutability": "view",
      "type": "function"
    },
    {
      "inputs": [],
      "name": "stakedToken",
      "outputs": [
        {
          "internalType": "contract StandardToken",
          "name": "",
          "type": "address"
        }
      ],
      "stateMutability": "view",
      "type": "function"
    },
    {
      "inputs": [
        {
          "internalType": "address",
          "name": "newOwner",
          "type": "address"
        }
      ],
      "name": "transferOwnership",
      "outputs": [],
      "stateMutability": "nonpayable",
      "type": "function"
    },
    {
      "inputs": [
        {
          "internalType": "address",
          "name": "",
          "type": "address"
        }
      ],
      "name": "users",
      "outputs": [
        {
          "internalType": "uint256",
          "name": "balance",
          "type": "uint256"
        },
        {
          "internalType": "uint256",
          "name": "stakeType",
          "type": "uint256"
        },
        {
          "internalType": "uint256",
          "name": "paidReward",
          "type": "uint256"
        },
        {
          "internalType": "uint256",
          "name": "yieldPaidReward",
          "type": "uint256"
        },
        {
          "internalType": "uint256",
          "name": "paidRewardPerToken",
          "type": "uint256"
        },
        {
          "internalType": "uint256",
          "name": "yieldPaidRewardPerToken",
          "type": "uint256"
        },
        {
          "internalType": "uint256",
          "name": "withdrawable",
          "type": "uint256"
        },
        {
          "internalType": "uint256",
          "name": "withdrawableExit",
          "type": "uint256"
        },
        {
          "internalType": "uint256",
          "name": "withdrawTime",
          "type": "uint256"
        },
        {
          "internalType": "bool",
          "name": "exit",
          "type": "bool"
        },
        {
          "internalType": "uint256",
          "name": "exitStartTime",
          "type": "uint256"
        },
        {
          "internalType": "uint256",
          "name": "exitAmountTillNow",
          "type": "uint256"
        },
        {
          "internalType": "uint256",
          "name": "lastCliamTime",
          "type": "uint256"
        }
      ],
      "stateMutability": "view",
      "type": "function"
    },
    {
      "inputs": [],
      "name": "yieldRewardTillNowPerToken",
      "outputs": [
        {
          "internalType": "uint256",
          "name": "",
          "type": "uint256"
        }
      ],
      "stateMutability": "view",
      "type": "function"
    },
    {
      "inputs": [],
      "name": "yieldRewardToken",
      "outputs": [
        {
          "internalType": "contract StandardToken",
          "name": "",
          "type": "address"
        }
      ],
      "stateMutability": "view",
      "type": "function"
    },
    {
      "inputs": [
        {
          "internalType": "address",
          "name": "_daoWallet",
          "type": "address"
        }
      ],
      "name": "setDaoWallet",
      "outputs": [],
      "stateMutability": "nonpayable",
      "type": "function"
    },
    {
      "inputs": [
        {
          "internalType": "uint256",
          "name": "_daoShare",
          "type": "uint256"
        }
      ],
      "name": "setDaoShare",
      "outputs": [],
      "stateMutability": "nonpayable",
      "type": "function"
    },
    {
      "inputs": [
        {
          "internalType": "uint256",
          "name": "period",
          "type": "uint256"
        }
      ],
      "name": "setExitPeriod",
      "outputs": [],
      "stateMutability": "nonpayable",
      "type": "function"
    },
    {
      "inputs": [
        {
          "internalType": "address",
          "name": "_addr",
          "type": "address"
        }
      ],
      "name": "setOperator",
      "outputs": [],
      "stateMutability": "nonpayable",
      "type": "function"
    },
    {
      "inputs": [
        {
          "internalType": "uint256",
          "name": "period",
          "type": "uint256"
        }
      ],
      "name": "setPeriod",
      "outputs": [],
      "stateMutability": "nonpayable",
      "type": "function"
    },
    {
      "inputs": [],
      "name": "withdrawToBurn",
      "outputs": [],
      "stateMutability": "nonpayable",
      "type": "function"
    },
    {
      "inputs": [
        {
          "internalType": "address",
          "name": "account",
          "type": "address"
        }
      ],
      "name": "earned",
      "outputs": [
        {
          "internalType": "uint256",
          "name": "",
          "type": "uint256"
        }
      ],
      "stateMutability": "view",
      "type": "function"
    },
    {
      "inputs": [
        {
          "internalType": "address",
          "name": "account",
          "type": "address"
        },
        {
          "internalType": "uint256",
          "name": "stakeType",
          "type": "uint256"
        }
      ],
      "name": "earned",
      "outputs": [
        {
          "internalType": "uint256",
          "name": "",
          "type": "uint256"
        },
        {
          "internalType": "uint256",
          "name": "",
          "type": "uint256"
        }
      ],
      "stateMutability": "view",
      "type": "function"
    },
    {
      "inputs": [
        {
          "internalType": "uint256",
          "name": "amount",
          "type": "uint256"
        },
        {
          "internalType": "uint256",
          "name": "stakeType",
          "type": "uint256"
        },
        {
          "internalType": "bool",
          "name": "_exit",
          "type": "bool"
        }
      ],
      "name": "deposit",
      "outputs": [],
      "stateMutability": "nonpayable",
      "type": "function"
    },
    {
      "inputs": [
        {
          "internalType": "address",
          "name": "_user",
          "type": "address"
        },
        {
          "internalType": "uint256",
          "name": "amount",
          "type": "uint256"
        },
        {
          "internalType": "uint256",
          "name": "stakeType",
          "type": "uint256"
        },
        {
          "internalType": "bool",
          "name": "_exit",
          "type": "bool"
        }
      ],
      "name": "depositFor",
      "outputs": [],
      "stateMutability": "nonpayable",
      "type": "function"
    },
    {
      "inputs": [],
      "name": "claim",
      "outputs": [],
      "stateMutability": "nonpayable",
      "type": "function"
    },
    {
      "inputs": [
        {
          "internalType": "bool",
          "name": "_val",
          "type": "bool"
        }
      ],
      "name": "setExit",
      "outputs": [],
      "stateMutability": "nonpayable",
      "type": "function"
    },
    {
      "inputs": [],
      "name": "unfreezeAllAndClaim",
      "outputs": [],
      "stateMutability": "nonpayable",
      "type": "function"
    },
    {
      "inputs": [
        {
          "internalType": "uint256",
          "name": "amount",
          "type": "uint256"
        }
      ],
      "name": "unfreeze",
      "outputs": [],
      "stateMutability": "nonpayable",
      "type": "function"
    },
    {
      "inputs": [],
      "name": "withdrawUnfreezed",
      "outputs": [],
      "stateMutability": "nonpayable",
      "type": "function"
    },
    {
      "inputs": [
        {
          "internalType": "uint256",
          "name": "reward",
          "type": "uint256"
        },
        {
          "internalType": "uint256",
          "name": "stakeType",
          "type": "uint256"
        }
      ],
      "name": "notifyRewardAmount",
      "outputs": [],
      "stateMutability": "nonpayable",
      "type": "function"
    },
    {
      "inputs": [
        {
          "internalType": "address",
          "name": "account",
          "type": "address"
        },
        {
          "internalType": "uint256",
          "name": "stakeType",
          "type": "uint256"
        }
      ],
      "name": "balanceOf",
      "outputs": [
        {
          "internalType": "uint256",
          "name": "",
          "type": "uint256"
        }
      ],
      "stateMutability": "view",
      "type": "function"
    },
    {
      "inputs": [
        {
          "internalType": "address",
          "name": "account",
          "type": "address"
        }
      ],
      "name": "exitBalance",
      "outputs": [
        {
          "internalType": "uint256",
          "name": "",
          "type": "uint256"
        }
      ],
      "stateMutability": "view",
      "type": "function"
    },
    {
      "inputs": [],
      "name": "totalYieldWithdrawed",
      "outputs": [
        {
          "internalType": "uint256",
          "name": "",
          "type": "uint256"
        }
      ],
      "stateMutability": "view",
      "type": "function"
    },
    {
      "inputs": [],
      "name": "totalExit",
      "outputs": [
        {
          "internalType": "uint256",
          "name": "",
          "type": "uint256"
        }
      ],
      "stateMutability": "view",
      "type": "function"
    },
    {
      "inputs": [
        {
          "internalType": "uint256",
          "name": "stakeType",
          "type": "uint256"
        }
      ],
      "name": "totalSupply",
      "outputs": [
        {
          "internalType": "uint256",
          "name": "",
          "type": "uint256"
        }
      ],
      "stateMutability": "view",
      "type": "function"
    },
    {
      "inputs": [],
      "name": "lastTimeRewardApplicable",
      "outputs": [
        {
          "internalType": "uint256",
          "name": "",
          "type": "uint256"
        }
      ],
      "stateMutability": "view",
      "type": "function"
    },
    {
      "inputs": [
        {
          "internalType": "uint256",
          "name": "stakeType",
          "type": "uint256"
        }
      ],
      "name": "rewardPerToken",
      "outputs": [
        {
          "internalType": "uint256",
          "name": "",
          "type": "uint256"
        }
      ],
      "stateMutability": "view",
      "type": "function"
    },
    {
      "inputs": [],
      "name": "getRewardToken",
      "outputs": [
        {
          "internalType": "address",
          "name": "",
          "type": "address"
        }
      ],
      "stateMutability": "view",
      "type": "function"
    },
    {
      "inputs": [
        {
          "internalType": "address",
          "name": "account",
          "type": "address"
        }
      ],
      "name": "userInfo",
      "outputs": [
        {
          "internalType": "uint256[15]",
          "name": "numbers",
          "type": "uint256[15]"
        },
        {
          "internalType": "address",
          "name": "rewardTokenAddress",
          "type": "address"
        },
        {
          "internalType": "address",
          "name": "stakedTokenAddress",
          "type": "address"
        },
        {
          "internalType": "address",
          "name": "controllerAddress",
          "type": "address"
        },
        {
          "internalType": "address",
          "name": "strategyAddress",
          "type": "address"
        },
        {
          "internalType": "bool",
          "name": "exit",
          "type": "bool"
        }
      ],
      "stateMutability": "view",
      "type": "function"
    },
    {
      "inputs": [
        {
          "internalType": "address",
          "name": "_controller",
          "type": "address"
        }
      ],
      "name": "setController",
      "outputs": [],
      "stateMutability": "nonpayable",
      "type": "function"
    },
    {
      "inputs": [
        {
          "internalType": "address",
          "name": "_user",
          "type": "address"
        }
      ],
      "name": "emergencyWithdrawFor",
      "outputs": [],
      "stateMutability": "nonpayable",
      "type": "function"
    },
    {
      "inputs": [
        {
          "internalType": "bool",
          "name": "_val",
          "type": "bool"
        }
      ],
      "name": "setAllowEmergencyWithdraw",
      "outputs": [],
      "stateMutability": "nonpayable",
      "type": "function"
    },
    {
      "inputs": [
        {
          "internalType": "bool",
          "name": "_val",
          "type": "bool"
        }
      ],
      "name": "setExitable",
      "outputs": [],
      "stateMutability": "nonpayable",
      "type": "function"
    },
    {
      "inputs": [
        {
          "internalType": "uint256",
          "name": "_val",
          "type": "uint256"
        }
      ],
      "name": "setExitRewardDenominator",
      "outputs": [],
      "stateMutability": "nonpayable",
      "type": "function"
    },
    {
      "inputs": [
        {
          "internalType": "uint256",
          "name": "amount",
          "type": "uint256"
        },
        {
          "internalType": "address",
          "name": "addr",
          "type": "address"
        }
      ],
      "name": "emergencyWithdrawETH",
      "outputs": [],
      "stateMutability": "nonpayable",
      "type": "function"
    },
    {
      "inputs": [
        {
          "internalType": "address",
          "name": "_tokenAddr",
          "type": "address"
        },
        {
          "internalType": "address",
          "name": "_to",
          "type": "address"
        },
        {
          "internalType": "uint256",
          "name": "_amount",
          "type": "uint256"
        }
      ],
      "name": "emergencyWithdrawERC20Tokens",
      "outputs": [],
      "stateMutability": "nonpayable",
      "type": "function"
    }
  ],
  "bytecode": "0x6080604052620151806001556276a700600290815560006006819055600781905560088190556009819055600a819055600b819055600c819055600d805460ff19169055600e91909155601355670de0b6b3a76400006014553480156200006557600080fd5b506040516200339038038062003390833981810160405260e08110156200008b57600080fd5b508051602082015160408301516060840151608085015160a086015160c09096015194959394929391929091906000620000c462000197565b600080546001600160a01b0319166001600160a01b0383169081178255604051929350917f8be0079c531659141344cd1fd0a4f28419497f9722a3daafe3b4186f6b6457e0908290a350601780546001600160a01b03199081166001600160a01b03998a16179091556018805482169789169790971790965560198054871695881695909517909455600f80548616918716919091179055601591909155601680548416919094161760ff60a01b1916600160a01b9115159190910217909155601080543392169190911790556200019b565b3390565b6131e580620001ab6000396000f3fe608060405234801561001057600080fd5b50600436106103ad5760003560e01c806380faa57d116101f4578063bd85b0391161011a578063f2bbd86c116100ad578063f7c618c11161007c578063f7c618c114610999578063f90ce5ba146109a1578063fd01bd4c146109a9578063fea10a5f146109b1576103ad565b8063f2bbd86c1461095b578063f2fde38b14610963578063f51e181a14610989578063f77c479114610991576103ad565b8063c8f33c91116100e9578063c8f33c911461093b578063cc7a262e14610943578063d177804b1461094b578063ebe2b12b14610953576103ad565b8063bd85b03914610906578063bfc84ff914610923578063c04b5f651461092b578063c1985d3b14610933576103ad565b8063a81119b811610192578063b3ab15fb11610161578063b3ab15fb1461089a578063b3f5e008146108c0578063b4d1d795146108f6578063b7b1f210146108fe576103ad565b8063a81119b8146107b9578063a87430ba146107df578063ae3421411461086c578063b004e03b14610874576103ad565b806388d19f1b116101ce57806388d19f1b1461077b5780638da5cb5b1461078357806392eefe9b1461078b578063a630e99d146107b1576103ad565b806380faa57d1461074e5780638544ab3014610756578063874c120b1461075e576103ad565b80634e71d92d116102d95780636623fc46116102775780636d0d2067116102465780636d0d2067146107045780636fadc3ca14610721578063715018a61461073e5780637b0a47ee14610746576103ad565b80636623fc46146106cf578063698a5897146106ec57806369940d79146106f457806369dda74c146106fc576103ad565b806360551d9d116102b357806360551d9d1461064857806360c6cdac1461066757806364997e011461066f57806365f2035514610695576103ad565b80634e71d92d14610619578063570ca735146106215780635d4c322414610629576103ad565b80631ea7dd57116103515780633e491d47116103205780633e491d47146105995780633eaaf86b146105de57806340878f58146105e657806343a0d066146105ee576103ad565b80631ea7dd5714610542578063246132f91461056657806326bfae3e146105895780633101d5af14610591576103ad565b80630f3a9f651161038d5780630f3a9f651461043557806315945006146104525780631959a0021461047e5780631a26af7a14610526576103ad565b80628cc262146103b2578062fdd58e146103ea57806304ff336c14610416575b600080fd5b6103d8600480360360208110156103c857600080fd5b50356001600160a01b03166109d0565b60408051918252519081900360200190f35b6103d86004803603604081101561040057600080fd5b506001600160a01b038135169060200135610a00565b6104336004803603602081101561042c57600080fd5b5035610a47565b005b6104336004803603602081101561044b57600080fd5b5035610aa4565b6104336004803603604081101561046857600080fd5b50803590602001356001600160a01b0316610b01565b6104a46004803603602081101561049457600080fd5b50356001600160a01b0316610ba7565b60405180876101e080838360005b838110156104ca5781810151838201526020016104b2565b50505050905001866001600160a01b03168152602001856001600160a01b03168152602001846001600160a01b03168152602001836001600160a01b031681526020018215158152602001965050505050505060405180910390f35b61052e610e5e565b604080519115158252519081900360200190f35b61054a610e67565b604080516001600160a01b039092168252519081900360200190f35b6104336004803603604081101561057c57600080fd5b5080359060200135610e76565b61052e610f10565b610433610f20565b6105c5600480360360408110156105af57600080fd5b506001600160a01b038135169060200135611018565b6040805192835260208301919091528051918290030190f35b6103d8611114565b61043361111a565b6104336004803603606081101561060457600080fd5b50803590602081013590604001351515611135565b610433611141565b61054a611274565b6104336004803603602081101561063f57600080fd5b50351515611283565b6104336004803603602081101561065e57600080fd5b503515156112ee565b6103d8611364565b6104336004803603602081101561068557600080fd5b50356001600160a01b031661136a565b610433600480360360808110156106ab57600080fd5b506001600160a01b03813516906020810135906040810135906060013515156113e4565b610433600480360360208110156106e557600080fd5b5035611785565b61054a611b7f565b61054a611b8e565b6103d8611b9d565b6104336004803603602081101561071a57600080fd5b5035611ba3565b6104336004803603602081101561073757600080fd5b5035611c00565b610433611c5d565b6103d8611cff565b6103d8611d05565b6103d8611d1f565b6103d86004803603602081101561077457600080fd5b5035611d25565b6103d8611dcc565b61054a611dd2565b610433600480360360208110156107a157600080fd5b50356001600160a01b0316611de1565b6103d8611e67565b610433600480360360208110156107cf57600080fd5b50356001600160a01b0316611e6d565b610805600480360360208110156107f557600080fd5b50356001600160a01b0316611fb6565b604080519d8e5260208e019c909c528c8c019a909a5260608c019890985260808b019690965260a08a019490945260c089019290925260e0880152610100870152151561012086015261014085015261016084015261018083015251908190036101a00190f35b6103d8612021565b6103d86004803603602081101561088a57600080fd5b50356001600160a01b0316612027565b610433600480360360208110156108b057600080fd5b50356001600160a01b03166120d0565b610433600480360360608110156108d657600080fd5b506001600160a01b0381358116916020810135909116906040013561214a565b6103d8612223565b6103d8612229565b6103d86004803603602081101561091c57600080fd5b503561222f565b6103d8612249565b6103d861224f565b610433612255565b6103d8612532565b61054a612538565b6103d8612547565b6103d861254d565b6103d8612553565b6104336004803603602081101561097957600080fd5b50356001600160a01b0316612559565b6103d8612651565b61054a612657565b61054a612666565b6103d8612675565b6103d861267b565b610433600480360360208110156109c757600080fd5b50351515612681565b6000806000806109e1856001611018565b90935090506109f1856002611018565b5092909201925050505b919050565b6001600160a01b0382166000908152601160205260408120600181015460031480610a2e5750828160010154145b15610a3b57549050610a41565b60009150505b92915050565b610a4f612878565b6000546001600160a01b03908116911614610a9f576040805162461bcd60e51b81526020600482018190526024820152600080516020613190833981519152604482015290519081900360640190fd5b600255565b610aac612878565b6000546001600160a01b03908116911614610afc576040805162461bcd60e51b81526020600482018190526024820152600080516020613190833981519152604482015290519081900360640190fd5b600155565b610b09612878565b6000546001600160a01b03908116911614610b59576040805162461bcd60e51b81526020600482018190526024820152600080516020613190833981519152604482015290519081900360640190fd5b6001600160a01b038116610b6c57600080fd5b6040516001600160a01b0382169083156108fc029084906000818181858888f19350505050158015610ba2573d6000803e3d6000fd5b505050565b610baf613129565b6001600160a01b03828116600090815260116020908152604080832080548652600181015486840152600880820154878401526006820154606088015254608087015260095460a087015260175482516370a0823160e01b815230600482015292519495869586958695869594909316926370a082319260248083019392829003018186803b158015610c4157600080fd5b505afa158015610c55573d6000803e3d6000fd5b505050506040513d6020811015610c6b57600080fd5b505160c0880152610c7c6001611d25565b60e0880152610c8b6002611d25565b610100880152610c9a886109d0565b610120880152600a810154610140880152610cb488612027565b610160880152600681015461018088015260078101546101a0880152601854601754600f5460098401546040805163f8806a1360e01b815230600482015290516001600160a01b039586169b50938516995093909116965060ff169350859163f8806a13916024808301926020929190829003018186803b158015610d3857600080fd5b505afa158015610d4c573d6000803e3d6000fd5b505050506040513d6020811015610d6257600080fd5b5051600f546040805163f8806a1360e01b815230600482015290519295506001600160a01b039091169163f8806a1391602480820192602092909190829003018186803b158015610db257600080fd5b505afa158015610dc6573d6000803e3d6000fd5b505050506040513d6020811015610ddc57600080fd5b50516040805163174a448b60e31b815290516001600160a01b039092169163ba52245891600480820192602092909190829003018186803b158015610e2057600080fd5b505afa158015610e34573d6000803e3d6000fd5b505050506040513d6020811015610e4a57600080fd5b50516101c088015250949693955091939092565b600d5460ff1681565b6019546001600160a01b031681565b610e7e611dd2565b6001600160a01b0316336001600160a01b03161480610ea75750600f546001600160a01b031633145b80610ebc57506010546001600160a01b031633145b610f02576040805162461bcd60e51b815260206004820152601260248201527110b7bbb732b927b921b7b73a3937b63632b960711b604482015290519081900360640190fd5b610f0c828261287c565b5050565b601654600160a01b900460ff1681565b610f28612878565b6000546001600160a01b03908116911614610f78576040805162461bcd60e51b81526020600482018190526024820152600080516020613190833981519152604482015290519081900360640190fd5b601754600c54600b546001600160a01b039092169163a9059cbb913391610f9e91612aa6565b6040518363ffffffff1660e01b815260040180836001600160a01b0316815260200182815260200192505050602060405180830381600087803b158015610fe457600080fd5b505af1158015610ff8573d6000803e3d6000fd5b505050506040513d602081101561100e57600080fd5b5050600b54600c55565b6001600160a01b03821660009081526011602052604081208190816001851461104557816005015461104b565b81600401545b90506000611087670de0b6b3a76400006110816110718561106b8b611d25565b90612aa6565b61107b8b8b610a00565b90612aef565b90612b48565b600984015490915060009060ff16156110fd57600a840154600c8501548110156110b25750600c8401545b600062015180824203816110c257fe5b049050600062015180600254816110d557fe5b049050808211156110e4578091505b600e546110f7906110818381868a612aef565b93505050505b6111078282612aa6565b9890975095505050505050565b60085481565b3360009081526011602052604090205461113390611785565b565b610ba2338484846113e4565b336000818152601160205260408120541561117457506001600160a01b0381166000908152601160205260409020600101545b6001600160a01b038216156111bb57600080611191846001611018565b90925090506000806111a4866002611018565b90925090506111b68685858585612b8a565b505050505b60018114806111ca5750600381145b15611216576111d96001611d25565b6006556111e4611d05565b6003556001600160a01b03821615611216576006546001600160a01b0383166000908152601160205260409020600401555b60028114806112255750600381145b15610f0c576112346002611d25565b60075561123f611d05565b6003556001600160a01b03821615610f0c576007546001600160a01b0383166000908152601160205260409020600501555050565b6010546001600160a01b031681565b61128b612878565b6000546001600160a01b039081169116146112db576040805162461bcd60e51b81526020600482018190526024820152600080516020613190833981519152604482015290519081900360640190fd5b600d805460ff1916911515919091179055565b6112f6612878565b6000546001600160a01b03908116911614611346576040805162461bcd60e51b81526020600482018190526024820152600080516020613190833981519152604482015290519081900360640190fd5b60168054911515600160a01b0260ff60a01b19909216919091179055565b60065481565b611372612878565b6000546001600160a01b039081169116146113c2576040805162461bcd60e51b81526020600482018190526024820152600080516020613190833981519152604482015290519081900360640190fd5b601680546001600160a01b0319166001600160a01b0392909216919091179055565b6001600160a01b038416600090815260116020526040902054849083901561142457506001600160a01b0381166000908152601160205260409020600101545b6001600160a01b0382161561146b57600080611441846001611018565b9092509050600080611454866002611018565b90925090506114668685858585612b8a565b505050505b600181148061147a5750600381145b156114c6576114896001611d25565b600655611494611d05565b6003556001600160a01b038216156114c6576006546001600160a01b0383166000908152601160205260409020600401555b60028114806114d55750600381145b15611521576114e46002611d25565b6007556114ef611d05565b6003556001600160a01b03821615611521576007546001600160a01b0383166000908152601160205260409020600501555b60018414806115305750600284145b8061153b5750600384145b611580576040805162461bcd60e51b8152602060048201526011602482015270496e76616c6964207374616b655479706560781b604482015290519081900360640190fd5b6001600160a01b0386166000908152601160205260409020805415806115a95750848160010154145b6115ef576040805162461bcd60e51b8152602060048201526012602482015271496e76616c6964205374616b65205479706560701b604482015290519081900360640190fd5b600981015460ff1680611609575080541580156116095750835b1561161c5761161787612ed6565b61163b565b8054158015611629575083155b1561163b5760098101805460ff191690555b601754604080516323b872dd60e01b81523360048201523060248201526044810189905290516001600160a01b03909216916323b872dd916064808201926020929091908290030181600087803b15801561169557600080fd5b505af11580156116a9573d6000803e3d6000fd5b505050506040513d60208110156116bf57600080fd5b50506001810185905580546116d49087612f62565b815560018514156116f4576008546116ec9087612f62565b600855611733565b60028514156117125760095461170a9087612f62565b600955611733565b60095461171f9087612f62565b60095560085461172f9087612f62565b6008555b604080516001600160a01b03891681526020810188905280820187905290517f90890809c654f11d6e72a28fa60149770a0d11ec6c92319d6ceb2bb0a4ea1a159181900360600190a150505050505050565b33600081815260116020526040812054156117b857506001600160a01b0381166000908152601160205260409020600101545b6001600160a01b038216156117ff576000806117d5846001611018565b90925090506000806117e8866002611018565b90925090506117fa8685858585612b8a565b505050505b600181148061180e5750600381145b1561185a5761181d6001611d25565b600655611828611d05565b6003556001600160a01b0382161561185a576006546001600160a01b0383166000908152601160205260409020600401555b60028114806118695750600381145b156118b5576118786002611d25565b600755611883611d05565b6003556001600160a01b038216156118b5576007546001600160a01b0383166000908152601160205260409020600501555b33600090815260116020526040902060018101548154851115611914576040805162461bcd60e51b81526020600482015260126024820152711dda5d1a191c985dc80f8819195c1bdcda5d60721b604482015290519081900360640190fd5b8415611b7857600061192533612027565b90506000868211156119415761193b8288612aa6565b90508691505b600984015460ff161561195c57600b840181905542600a8501555b60006119688884612aa6565b85549091506119779089612aa6565b855560018414156119975760085461198f9089612aa6565b6008556119d6565b60028414156119b5576009546119ad9089612aa6565b6009556119d6565b6008546119c29089612aa6565b6008556009546119d29089612aa6565b6009555b600d5460ff16806119e75750600184145b15611b09578015611ab3576017546040805163a9059cbb60e01b81523360048201526024810184905290516001600160a01b039092169163a9059cbb916044808201926020929091908290030181600087803b158015611a4657600080fd5b505af1158015611a5a573d6000803e3d6000fd5b505050506040513d6020811015611a7057600080fd5b5050604080513381526020810183905280820186905290517ff279e6a1f5e320cca91135676d9cb6e44ca8a08c0b88342bcdb1144f6511b5689181900360600190a15b8215611b0457611ac33384612fbc565b604080513381526020810185905280820186905290517fbe0b6e5b3195df91f2e6b2b20501f84b085714f9e38073f499073c83056510099181900360600190a15b611b6c565b6006850180548201905560078501805484019055426008860155600a80548901905560408051338152602081018a905280820186905290517f7ed75eaf82098257819f0bd6dd7f79062e49152905980263c73ee48565a656a59181900360600190a15b5050600b805490910190555b5050505050565b6016546001600160a01b031681565b6018546001600160a01b031690565b600b5490565b611bab612878565b6000546001600160a01b03908116911614611bfb576040805162461bcd60e51b81526020600482018190526024820152600080516020613190833981519152604482015290519081900360640190fd5b600e55565b611c08612878565b6000546001600160a01b03908116911614611c58576040805162461bcd60e51b81526020600482018190526024820152600080516020613190833981519152604482015290519081900360640190fd5b601555565b611c65612878565b6000546001600160a01b03908116911614611cb5576040805162461bcd60e51b81526020600482018190526024820152600080516020613190833981519152604482015290519081900360640190fd5b600080546040516001600160a01b03909116907f8be0079c531659141344cd1fd0a4f28419497f9722a3daafe3b4186f6b6457e0908390a3600080546001600160a01b0319169055565b60045481565b60006013544210611d1857601354611d1a565b425b905090565b600e5481565b60008060018314611d3857600954611d3c565b6008545b905080611d5f5760018314611d5357600754611d57565b6006545b9150506109fb565b6001831415611d9a57611d57611d91600854611081670de0b6b3a764000061107b60045461107b60035461106b611d05565b60065490612f62565b611d57611dc3600954611081670de0b6b3a764000061107b60055461107b60035461106b611d05565b60075490612f62565b60155481565b6000546001600160a01b031690565b611de9612878565b6000546001600160a01b03908116911614611e39576040805162461bcd60e51b81526020600482018190526024820152600080516020613190833981519152604482015290519081900360640190fd5b6001600160a01b03811615611e6457600f80546001600160a01b0319166001600160a01b0383161790555b50565b60055481565b611e75612878565b6000546001600160a01b03908116911614611ec5576040805162461bcd60e51b81526020600482018190526024820152600080516020613190833981519152604482015290519081900360640190fd5b6001600160a01b0380821660008181526011602090815260408083208054601754835163a9059cbb60e01b815260048101979097526024870182905292519196909592169363a9059cbb93604480850194919392918390030190829087803b158015611f3057600080fd5b505af1158015611f44573d6000803e3d6000fd5b505050506040513d6020811015611f5a57600080fd5b5050604080516001600160a01b03851681526020810183905281517f5fafa99d0643513820be26656b45130b01e1c03062e1266bf36f88cbd3bd9695929181900390910190a15060008082556002820181905560039091015550565b601160205260009081526040902080546001820154600283015460038401546004850154600586015460068701546007880154600889015460098a0154600a8b0154600b8c0154600c909c01549a9b999a989997989697959694959394929360ff909216929091908d565b60095481565b6001600160a01b0381166000908152601160205260408120600981015460ff16158061205257508054155b156120615760009150506109fb565b600061207e60025483600a01544203612b4890919063ffffffff16565b9050600181101561208f5780612092565b60015b82549091506000906120b3906120a89084612aef565b600b85015490612f62565b835490915081116120c457806120c7565b82545b95945050505050565b6120d8612878565b6000546001600160a01b03908116911614612128576040805162461bcd60e51b81526020600482018190526024820152600080516020613190833981519152604482015290519081900360640190fd5b601080546001600160a01b0319166001600160a01b0392909216919091179055565b612152612878565b6000546001600160a01b039081169116146121a2576040805162461bcd60e51b81526020600482018190526024820152600080516020613190833981519152604482015290519081900360640190fd5b826001600160a01b031663a9059cbb83836040518363ffffffff1660e01b815260040180836001600160a01b0316815260200182815260200192505050602060405180830381600087803b1580156121f957600080fd5b505af115801561220d573d6000803e3d6000fd5b505050506040513d6020811015611b7857600080fd5b60015481565b60075481565b60006001821461224157600954610a41565b505060085490565b600b5481565b60025481565b336000908152601160205260409020600681015415158061227a575060008160070154115b6122b9576040805162461bcd60e51b815260206004820152600b60248201526a0616d6f756e7420697320360ac1b604482015290519081900360640190fd5b600f546040805163f8806a1360e01b815230600482015290516000926001600160a01b03169163f8806a13916024808301926020929190829003018186803b15801561230457600080fd5b505afa158015612318573d6000803e3d6000fd5b505050506040513d602081101561232e57600080fd5b50516040805163174a448b60e31b815290516001600160a01b039092169163ba52245891600480820192602092909190829003018186803b15801561237257600080fd5b505afa158015612386573d6000803e3d6000fd5b505050506040513d602081101561239c57600080fd5b5051600883015490915081116123ee576040805162461bcd60e51b815260206004820152601260248201527110d85b89dd081dda5d1a191c985dc81e595d60721b604482015290519081900360640190fd5b6006820154156124ca5760175460068301546040805163a9059cbb60e01b81523360048201526024810192909252516001600160a01b039092169163a9059cbb916044808201926020929091908290030181600087803b15801561245157600080fd5b505af1158015612465573d6000803e3d6000fd5b505050506040513d602081101561247b57600080fd5b50506006820154604080513381526020810192909252600282820152517ff279e6a1f5e320cca91135676d9cb6e44ca8a08c0b88342bcdb1144f6511b5689181900360600190a1600060068301555b600782015415610f0c576124e2338360070154612fbc565b6007820154604080513381526020810192909252600282820152517fbe0b6e5b3195df91f2e6b2b20501f84b085714f9e38073f499073c83056510099181900360600190a1600060078301555050565b60035481565b6017546001600160a01b031681565b600a5481565b60135481565b600a5490565b612561612878565b6000546001600160a01b039081169116146125b1576040805162461bcd60e51b81526020600482018190526024820152600080516020613190833981519152604482015290519081900360640190fd5b6001600160a01b0381166125f65760405162461bcd60e51b81526004018080602001828103825260268152602001806131496026913960400191505060405180910390fd5b600080546040516001600160a01b03808516939216917f8be0079c531659141344cd1fd0a4f28419497f9722a3daafe3b4186f6b6457e091a3600080546001600160a01b0319166001600160a01b0392909216919091179055565b60145481565b600f546001600160a01b031681565b6018546001600160a01b031681565b60125481565b600c5481565b33600081815260116020526040812054156126b457506001600160a01b0381166000908152601160205260409020600101545b6001600160a01b038216156126fb576000806126d1846001611018565b90925090506000806126e4866002611018565b90925090506126f68685858585612b8a565b505050505b600181148061270a5750600381145b15612756576127196001611d25565b600655612724611d05565b6003556001600160a01b03821615612756576006546001600160a01b0383166000908152601160205260409020600401555b60028114806127655750600381145b156127b1576127746002611d25565b60075561277f611d05565b6003556001600160a01b038216156127b1576007546001600160a01b0383166000908152601160205260409020600501555b336000908152601160205260409020600981015460ff1615158415151415612813576040805162461bcd60e51b815260206004820152601060248201526f73616d6520657869742073746174757360801b604482015290519081900360640190fd5b8054612852576040805162461bcd60e51b8152602060048201526009602482015268302062616c616e636560b81b604482015290519081900360640190fd5b60098101805460ff191694151594909417909355505042600a8201556000600b90910155565b3390565b600080805260116020527f4ad3b33220dddc71b994a52d72c06b10862965f7d926534c05c00fb7e819e7b7548290156128cd57506001600160a01b0381166000908152601160205260409020600101545b6001600160a01b03821615612914576000806128ea846001611018565b90925090506000806128fd866002611018565b909250905061290f8685858585612b8a565b505050505b60018114806129235750600381145b1561296f576129326001611d25565b60065561293d611d05565b6003556001600160a01b0382161561296f576006546001600160a01b0383166000908152601160205260409020600401555b600281148061297e5750600381145b156129ca5761298d6002611d25565b600755612998611d05565b6003556001600160a01b038216156129ca576007546001600160a01b0383166000908152601160205260409020600501555b6013544210612a095760018314156129f2576001546129ea908590612b48565b600455612a04565b600154612a00908590612b48565b6005555b612a8a565b601354600090612a199042612aa6565b90506001841415612a58576000612a3b60045483612aef90919063ffffffff16565b600154909150612a4f906110818884612f62565b60045550612a88565b6000612a6f60055483612aef90919063ffffffff16565b600154909150612a83906110818884612f62565b600555505b505b426003819055600154612a9d9190612f62565b60135550505050565b6000612ae883836040518060400160405280601e81526020017f536166654d6174683a207375627472616374696f6e206f766572666c6f77000081525061302d565b9392505050565b600082612afe57506000610a41565b82820282848281612b0b57fe5b0414612ae85760405162461bcd60e51b815260040180806020018281038252602181526020018061316f6021913960400191505060405180910390fd5b6000612ae883836040518060400160405280601a81526020017f536166654d6174683a206469766973696f6e206279207a65726f0000000000008152506130c4565b6001600160a01b0385166000908152601160205260408120601454601554919291612bbb9190611081908990612aef565b90506000612bda60145461108160155488612aef90919063ffffffff16565b90508615612d11576018546001600160a01b031663a9059cbb89612bfe8a86612aa6565b6040518363ffffffff1660e01b815260040180836001600160a01b0316815260200182815260200192505050602060405180830381600087803b158015612c4457600080fd5b505af1158015612c58573d6000803e3d6000fd5b505050506040513d6020811015612c6e57600080fd5b50508115612cfc576018546016546040805163a9059cbb60e01b81526001600160a01b039283166004820152602481018690529051919092169163a9059cbb9160448083019260209291908290030181600087803b158015612ccf57600080fd5b505af1158015612ce3573d6000803e3d6000fd5b505050506040513d6020811015612cf957600080fd5b50505b6002830154612d0b9088612f62565b60028401555b8415612e46576019546001600160a01b031663a9059cbb89612d338885612aa6565b6040518363ffffffff1660e01b815260040180836001600160a01b0316815260200182815260200192505050602060405180830381600087803b158015612d7957600080fd5b505af1158015612d8d573d6000803e3d6000fd5b505050506040513d6020811015612da357600080fd5b50508015612e31576019546016546040805163a9059cbb60e01b81526001600160a01b039283166004820152602481018590529051919092169163a9059cbb9160448083019260209291908290030181600087803b158015612e0457600080fd5b505af1158015612e18573d6000803e3d6000fd5b505050506040513d6020811015612e2e57600080fd5b50505b6003830154612e409086612f62565b60038401555b6000851180612e555750600087115b15612ea457604080516001600160a01b038a1681526020810189905280820187905290517ff01da32686223933d8a18a391060918c7f11a3648639edd87ae013e2e27317439181900360600190a15b8515612eb557612eb586600161287c565b8315612ec657612ec684600261287c565b505042600c909101555050505050565b601654600160a01b900460ff16612f23576040805162461bcd60e51b815260206004820152600c60248201526b4e6f74206578697461626c6560a01b604482015290519081900360640190fd5b6001600160a01b038116600090815260116020526040902060098101805460ff19166001179055612f5382612027565b600b82015542600a9091015550565b600082820183811015612ae8576040805162461bcd60e51b815260206004820152601b60248201527f536166654d6174683a206164646974696f6e206f766572666c6f770000000000604482015290519081900360640190fd5b600f5460408051631abe49b560e21b81526001600160a01b0385811660048301526024820185905291519190921691636af926d491604480830192600092919082900301818387803b15801561301157600080fd5b505af1158015613025573d6000803e3d6000fd5b505050505050565b600081848411156130bc5760405162461bcd60e51b81526004018080602001828103825283818151815260200191508051906020019080838360005b83811015613081578181015183820152602001613069565b50505050905090810190601f1680156130ae5780820380516001836020036101000a031916815260200191505b509250505060405180910390fd5b505050900390565b600081836131135760405162461bcd60e51b8152602060048201818152835160248401528351909283926044909101919085019080838360008315613081578181015183820152602001613069565b50600083858161311f57fe5b0495945050505050565b604051806101e00160405280600f90602082028036833750919291505056fe4f776e61626c653a206e6577206f776e657220697320746865207a65726f2061646472657373536166654d6174683a206d756c7469706c69636174696f6e206f766572666c6f774f776e61626c653a2063616c6c6572206973206e6f7420746865206f776e6572a264697066735822122056e78bb60d3f325ab54fbb1ba7959cb055e27398b4f1164919f103618cda554f64736f6c634300060c0033",
  "immutableReferences": {},
  "source": "pragma solidity 0.6.12;\n\n// SPDX-License-Identifier: MIT\n\nimport \"./SafeMath.sol\";\nimport \"./Ownable.sol\";\n\ninterface StandardToken {\n    function transfer(address recipient, uint256 amount) external returns (bool);\n    function transferFrom(address sender, address recipient, uint256 amount) external returns (bool);\n    function balanceOf(address account) external view returns (uint256);\n}\n\ninterface IController {\n    function withdrawETH(uint256 amount) external;\n    function depositForStrategy(uint256 amount, address addr) external;\n    function buyForStrategy(\n        uint256 amount,\n        address rewardToken,\n        address recipient\n    ) external;\n\n    function sendExitToken(\n        address user,\n        uint256 amount\n    ) external;\n\n    function getStrategy(address vault) external view returns (address);\n}\n\ninterface IStrategy {\n    function getLastEpochTime() external view returns(uint256);\n}\n\ncontract StakeAndYield is Ownable {\n    uint256 constant STAKE = 1;\n    uint256 constant YIELD = 2;\n    uint256 constant BOTH = 3;\n\n    uint256 public PERIOD = 24 hours;\n    uint256 public EXIT_PERIOD = 90 days;\n\n    uint256 public lastUpdateTime;\n    uint256 public rewardRate;\n    uint256 public rewardRateYield;\n\n    uint256 public rewardTillNowPerToken = 0;\n    uint256 public yieldRewardTillNowPerToken = 0;\n\n    uint256 public _totalSupply = 0;\n    uint256 public _totalSupplyYield = 0;\n\n    uint256 public _totalYieldWithdrawed = 0;\n    uint256 public _totalExit = 0;\n    uint256 public _totalBurned = 0;\n\n    // false: withdraw from YEARN and then pay the user\n    // true: pay the user before withdrawing from YEARN\n    bool public allowEmergencyWithdraw = false;\n\n    uint256 public exitRewardDenominator = 2;\n\n    IController public controller;\n\n    address public operator;\n\n    struct User {\n        uint256 balance;\n        uint256 stakeType;\n\n        uint256 paidReward;\n        uint256 yieldPaidReward;\n\n        uint256 paidRewardPerToken;\n        uint256 yieldPaidRewardPerToken;\n\n        uint256 withdrawable;\n        uint256 withdrawableExit;\n        uint256 withdrawTime;\n\n        bool exit;\n\n        uint256 exitStartTime;\n        uint256 exitAmountTillNow;\n\n        uint256 lastCliamTime;\n    }\n\n    using SafeMath for uint256;\n\n    mapping (address => User) public users;\n\n    uint256 public lastUpdatedBlock;\n\n    uint256 public periodFinish = 0;\n\n    uint256 public scale = 1e18;\n\n    uint256 public daoShare;\n    address public daoWallet;\n\n    bool public exitable;\n\n    StandardToken public stakedToken;\n    StandardToken public rewardToken;\n    StandardToken public yieldRewardToken;\n\n    event Deposit(address user, uint256 amount, uint256 stakeType);\n    event Withdraw(address user, uint256 amount, uint256 stakeType);\n    event Exit(address user, uint256 amount, uint256 stakeType);\n    event Unfreeze(address user, uint256 amount, uint256 stakeType);\n    event EmergencyWithdraw(address user, uint256 amount);\n    event RewardClaimed(address user, uint256 amount, uint256 stakeType);\n\n    constructor (\n\t\taddress _stakedToken,\n\t\taddress _rewardToken,\n        address _yieldRewardToken,\n\t\tuint256 _daoShare,\n\t\taddress _daoWallet,\n        address _controller,\n        bool _exitable\n    ) public {\n        stakedToken = StandardToken(_stakedToken);\n        rewardToken = StandardToken(_rewardToken);\n        yieldRewardToken = StandardToken(_yieldRewardToken);\n        controller = IController(_controller);\n        daoShare = _daoShare;\n        daoWallet = _daoWallet;\n        exitable = _exitable;\n\n        operator = msg.sender;\n    }\n\n    modifier onlyOwnerOrController(){\n        require(msg.sender == owner() ||\n            msg.sender == address(controller) ||\n            msg.sender == operator,\n            \"!ownerOrController\"\n        );\n        _;\n    }\n\n    modifier updateReward(address account, uint256 stakeType) {\n        if(users[account].balance > 0){\n            stakeType = users[account].stakeType;\n        }\n        \n        if (account != address(0)) {\n            uint256 stakeEarned;\n            uint256 stakeSubtract;\n\n            (stakeEarned, stakeSubtract) = earned(account, STAKE);\n\n            uint256 yieldEarned;\n            uint256 yieldSubtract;\n\n            (yieldEarned, yieldSubtract) = earned(account, YIELD);\n\n            sendReward(\n                account,\n                stakeEarned, stakeSubtract,\n                yieldEarned, yieldSubtract\n            );\n        }\n        if(stakeType == STAKE || stakeType == BOTH){\n            rewardTillNowPerToken = rewardPerToken(STAKE);\n            lastUpdateTime = lastTimeRewardApplicable();\n            if (account != address(0)) {\n                users[account].paidRewardPerToken = rewardTillNowPerToken;\n            }\n        }\n\n        if(stakeType == YIELD || stakeType == BOTH){\n            yieldRewardTillNowPerToken = rewardPerToken(YIELD);\n            lastUpdateTime = lastTimeRewardApplicable();\n            if (account != address(0)) {\n                users[account].yieldPaidRewardPerToken = yieldRewardTillNowPerToken;\n            }\n        }\n        _;\n    }\n\n    function setDaoWallet(address _daoWallet) public onlyOwner {\n        daoWallet = _daoWallet;\n    }\n\n    function setDaoShare(uint256 _daoShare) public onlyOwner {\n        daoShare = _daoShare;\n    }\n\n    function setExitPeriod(uint256 period) public onlyOwner {\n        EXIT_PERIOD = period;\n    }\n\n    function setOperator(address _addr) public onlyOwner{\n        operator = _addr;\n    }\n\n    function setPeriod(uint256 period) public onlyOwner{\n        PERIOD = period;\n    }\n\n    function withdrawToBurn() public onlyOwner{\n        stakedToken.transfer(\n            msg.sender,\n            _totalExit.sub(_totalBurned)\n        );\n        _totalBurned = _totalExit;\n    }\n\n    function earned(address account, uint256 stakeType) public view returns(uint256, uint256) {\n        User storage user = users[account];\n\n        uint256 paidPerToken = stakeType == STAKE ? \n            user.paidRewardPerToken : user.yieldPaidRewardPerToken;\n\n        uint256 amount = balanceOf(account, stakeType).mul(\n            rewardPerToken(stakeType).\n            sub(paidPerToken)\n        ).div(1e18);\n\n        uint256 substract = 0;\n        if(user.exit){\n            uint256 startDate = user.exitStartTime;\n            if(user.lastCliamTime > startDate){\n                startDate = user.lastCliamTime;\n            }\n            uint256 daysIn = (block.timestamp - startDate) / 1 days;\n            uint256 exitPeriodDays = EXIT_PERIOD/1 days;\n            if(daysIn > exitPeriodDays){\n                daysIn = exitPeriodDays;\n            }\n            substract = daysIn.mul(amount).div(exitPeriodDays).div(\n                exitRewardDenominator\n            );\n        }\n        return (amount.sub(substract), substract);\n    }\n\n    function earned(address account) public view returns(uint256){\n        uint256 stakeEarned;\n        uint256 yieldEarned;\n        uint256 tmp;\n        (stakeEarned, tmp) = earned(account, STAKE);\n        (yieldEarned, tmp) = earned(account, YIELD);\n\n        return stakeEarned + yieldEarned;\n    }\n\n\tfunction deposit(uint256 amount, uint256 stakeType, bool _exit) public {\n\t\tdepositFor(msg.sender, amount, stakeType, _exit);\n    }\n\n    function depositFor(address _user, uint256 amount, uint256 stakeType, bool _exit)\n        updateReward(_user, stakeType)\n        public {\n        \n        require(stakeType==STAKE || stakeType ==YIELD || stakeType==BOTH, \"Invalid stakeType\");\n        User storage user = users[_user];\n        require(user.balance == 0 || user.stakeType==stakeType, \"Invalid Stake Type\");\n\n        if(user.exit || (user.balance == 0 && _exit)){\n            updateExit(_user);\n        }else if(user.balance == 0 && !_exit){\n            user.exit = false;\n        }\n\n        stakedToken.transferFrom(address(msg.sender), address(this), amount);\n\n        user.stakeType = stakeType;\n        user.balance = user.balance.add(amount);\n\n        if(stakeType == STAKE){\n            _totalSupply = _totalSupply.add(amount);\n        }else if(stakeType == YIELD){\n            _totalSupplyYield = _totalSupplyYield.add(amount);\n        }else{\n            _totalSupplyYield = _totalSupplyYield.add(amount);\n            _totalSupply = _totalSupply.add(amount);\n        }\n        \n        emit Deposit(_user, amount, stakeType);\n    }\n\n    function updateExit(address _user) private{\n        require(exitable, \"Not exitable\");\n        User storage user = users[_user];\n        user.exit = true;\n        user.exitAmountTillNow = exitBalance(_user);\n        user.exitStartTime = block.timestamp;\n    }\n\n\tfunction sendReward(address userAddress, \n        uint256 stakeEarned, uint256 stakeSubtract, \n        uint256 yieldEarned, uint256 yieldSubtract\n    ) private {\n        User storage user = users[userAddress];\n\t\tuint256 _daoShare = stakeEarned.mul(daoShare).div(scale);\n        uint256 _yieldDaoShare = yieldEarned.mul(daoShare).div(scale);\n\n        if(stakeEarned > 0){\n            rewardToken.transfer(userAddress, stakeEarned.sub(_daoShare));\n            if(_daoShare > 0)\n                rewardToken.transfer(daoWallet, _daoShare);\n            user.paidReward = user.paidReward.add(\n                stakeEarned\n            );\n        }\n\n        if(yieldEarned > 0){\n            yieldRewardToken.transfer(userAddress, yieldEarned.sub(_yieldDaoShare));\n            \n            if(_yieldDaoShare > 0)\n                yieldRewardToken.transfer(daoWallet, _yieldDaoShare);   \n            \n            user.yieldPaidReward = user.yieldPaidReward.add(\n                yieldEarned\n            );\n        }\n        \n        if(yieldEarned > 0 || stakeEarned > 0){\n            emit RewardClaimed(userAddress, stakeEarned, yieldEarned);\n        }\n\n        if(stakeSubtract > 0){\n            notifyRewardAmountInternal(stakeSubtract, STAKE);\n        }\n        if(yieldSubtract > 0){\n            notifyRewardAmountInternal(yieldSubtract, YIELD);\n        }\n        user.lastCliamTime = block.timestamp;\n\t}\n\n    function sendExitToken(address _user, uint256 amount) private {\n        controller.sendExitToken(\n            _user,\n            amount\n        );\n    }\n\n    function claim() updateReward(msg.sender, 0) public {\n        // updateReward handles everything\n    }\n\n    function setExit(bool _val) updateReward(msg.sender, 0) public{\n        User storage user = users[msg.sender];\n        require(user.exit != _val, \"same exit status\");\n        require(user.balance > 0, \"0 balance\");\n\n        user.exit = _val;\n        user.exitStartTime = now;\n        user.exitAmountTillNow = 0;\n    }\n\n    function unfreezeAllAndClaim() public{\n        unfreeze(users[msg.sender].balance);\n    }\n\n    function unfreeze(uint256 amount) updateReward(msg.sender, 0) public {\n        User storage user = users[msg.sender];\n        uint256 stakeType = user.stakeType;\n\n        require(\n            user.balance >= amount,\n            \"withdraw > deposit\");\n\n        if (amount > 0) {\n            uint256 exitAmount = exitBalance(msg.sender);\n            uint256 remainingExit = 0;\n            if(exitAmount > amount){\n                remainingExit = exitAmount.sub(amount);\n                exitAmount = amount;\n            }\n\n            if(user.exit){\n                user.exitAmountTillNow = remainingExit;\n                user.exitStartTime = now;\n            }\n\n            uint256 tokenAmount = amount.sub(exitAmount);\n            user.balance = user.balance.sub(amount);\n            if(stakeType == STAKE){\n                _totalSupply = _totalSupply.sub(amount);\n            }else if (stakeType == YIELD){\n                _totalSupplyYield = _totalSupplyYield.sub(amount);\n            }else{\n                _totalSupply = _totalSupply.sub(amount);\n                _totalSupplyYield = _totalSupplyYield.sub(amount);\n            }\n\n            if(allowEmergencyWithdraw || stakeType==STAKE){\n                if(tokenAmount > 0){\n                    stakedToken.transfer(address(msg.sender), tokenAmount);\n                    emit Withdraw(msg.sender, tokenAmount, stakeType);\n                }\n                if(exitAmount > 0){\n                    sendExitToken(msg.sender, exitAmount);\n                    emit Exit(msg.sender, exitAmount, stakeType);\n                }\n            }else{\n                user.withdrawable += tokenAmount;\n                user.withdrawableExit += exitAmount;\n\n                user.withdrawTime = now;\n\n                _totalYieldWithdrawed += amount;\n                emit Unfreeze(msg.sender, amount, stakeType);\n            }\n            _totalExit += exitAmount;\n        }\n    }\n\n    function withdrawUnfreezed() public{\n        User storage user = users[msg.sender];\n        require(user.withdrawable > 0 || user.withdrawableExit > 0, \n            \"amount is 0\");\n        \n        uint256 lastEpochTime = IStrategy(\n            controller.getStrategy(address(this))\n        ).getLastEpochTime();\n        require(user.withdrawTime < lastEpochTime,\n            \"Can't withdraw yet\");\n\n        if(user.withdrawable > 0){\n            stakedToken.transfer(address(msg.sender), user.withdrawable);\n            emit Withdraw(msg.sender, user.withdrawable, YIELD);\n            user.withdrawable = 0;    \n        }\n\n        if(user.withdrawableExit > 0){\n            sendExitToken(msg.sender, user.withdrawableExit);\n            emit Exit(msg.sender, user.withdrawableExit, YIELD);\n            user.withdrawableExit = 0;    \n        }\n    }\n\n    function notifyRewardAmount(uint256 reward, uint256 stakeType) public onlyOwnerOrController{\n        notifyRewardAmountInternal(reward, stakeType);\n    }\n\n    // just Controller and admin should be able to call this\n    function notifyRewardAmountInternal(uint256 reward, uint256 stakeType) private  updateReward(address(0), stakeType){\n        if (block.timestamp >= periodFinish) {\n            if(stakeType == STAKE){\n                rewardRate = reward.div(PERIOD);    \n            }else{\n                rewardRateYield = reward.div(PERIOD);\n            }\n        } else {\n            uint256 remaining = periodFinish.sub(block.timestamp);\n            if(stakeType == STAKE){\n                uint256 leftover = remaining.mul(rewardRate);\n                rewardRate = reward.add(leftover).div(PERIOD);    \n            }else{\n                uint256 leftover = remaining.mul(rewardRateYield);\n                rewardRateYield = reward.add(leftover).div(PERIOD);\n            }\n            \n        }\n        lastUpdateTime = block.timestamp;\n        periodFinish = block.timestamp.add(PERIOD);\n    }\n\n    function balanceOf(address account, uint256 stakeType) public view returns(uint256) {\n        User storage user = users[account];\n        if(user.stakeType == BOTH || user.stakeType==stakeType)\n            return user.balance;\n        return 0;\n    }\n\n    function exitBalance(address account) public view returns(uint256){\n        User storage user = users[account];\n        if(!user.exit || user.balance==0){\n            return 0;\n        }\n        uint256 portion = (block.timestamp - user.exitStartTime).div(EXIT_PERIOD);\n        portion = portion >= 1 ? 1 : portion;\n        \n        uint256 balance = user.exitAmountTillNow.add(\n                user.balance.mul(portion)\n        );\n        return balance > user.balance ? user.balance : balance;\n    }\n\n    function totalYieldWithdrawed() public view returns(uint256) {\n        return _totalYieldWithdrawed;\n    }\n\n    function totalExit() public view returns(uint256) {\n        return _totalExit;\n    }\n\n    function totalSupply(uint256 stakeType) public view returns(uint256) {\n        return stakeType == STAKE ? _totalSupply : _totalSupplyYield;\n    }\n\n    function lastTimeRewardApplicable() public view returns(uint256) {\n        return block.timestamp < periodFinish ? block.timestamp : periodFinish;\n    }\n\n    function rewardPerToken(uint256 stakeType) public view returns(uint256) {\n        uint256 supply = stakeType == STAKE ? _totalSupply : _totalSupplyYield;        \n        if (supply == 0) {\n            return stakeType == STAKE ? rewardTillNowPerToken : yieldRewardTillNowPerToken;\n        }\n        if(stakeType == STAKE){\n            return rewardTillNowPerToken.add(\n                lastTimeRewardApplicable().sub(lastUpdateTime)\n                .mul(rewardRate).mul(1e18).div(_totalSupply)\n            );\n        }else{\n            return yieldRewardTillNowPerToken.add(\n                lastTimeRewardApplicable().sub(lastUpdateTime).\n                mul(rewardRateYield).mul(1e18).div(_totalSupplyYield)\n            );\n        }\n    }\n\n    function getRewardToken() public view returns(address){\n        return address(rewardToken);\n    }\n\n    function userInfo(address account) public view returns(\n        uint256[15] memory numbers,\n\n        address rewardTokenAddress,\n        address stakedTokenAddress,\n        address controllerAddress,\n        address strategyAddress,\n        bool exit\n    ){\n        User storage user = users[account];\n        numbers[0] = user.balance;\n        numbers[1] = user.stakeType;\n        numbers[2] = user.withdrawTime;\n        numbers[3] = user.withdrawable;\n        numbers[4] = _totalSupply;\n        numbers[5] = _totalSupplyYield;\n        numbers[6] = stakedToken.balanceOf(address(this));\n        \n        numbers[7] = rewardPerToken(STAKE);\n        numbers[8] = rewardPerToken(YIELD);\n        \n        numbers[9] = earned(account);\n\n        numbers[10] = user.exitStartTime;\n        numbers[11] = exitBalance(account);\n\n        numbers[12] = user.withdrawable;\n        numbers[13] = user.withdrawableExit;\n\n        rewardTokenAddress = address(rewardToken);\n        stakedTokenAddress = address(stakedToken);\n        controllerAddress = address(controller);\n\n        exit = user.exit;\n\n\n        strategyAddress = controller.getStrategy(address(this));\n\n        numbers[14] = IStrategy(\n            controller.getStrategy(address(this))\n        ).getLastEpochTime();\n    }\n\n    function setController(address _controller) public onlyOwner{\n        if(_controller != address(0)){\n            controller = IController(_controller);\n        }\n    }\n\n\tfunction emergencyWithdrawFor(address _user) public onlyOwner{\n        User storage user = users[_user];\n\n        uint256 amount = user.balance;\n\n        stakedToken.transfer(_user, amount);\n\n        emit EmergencyWithdraw(_user, amount);\n\n        //add other fields\n        user.balance = 0;\n        user.paidReward = 0;\n        user.yieldPaidReward = 0;\n    }\n\n    function setAllowEmergencyWithdraw(bool _val) public onlyOwner{\n        allowEmergencyWithdraw = _val;\n    }\n\n    function setExitable(bool _val) public onlyOwner{\n        exitable = _val;\n    }\n\n    function setExitRewardDenominator(uint256 _val) public onlyOwner{\n        exitRewardDenominator = _val;\n    }\n\n    function emergencyWithdrawETH(uint256 amount, address addr) public onlyOwner{\n        require(addr != address(0));\n        payable(addr).transfer(amount);\n    }\n\n    function emergencyWithdrawERC20Tokens(address _tokenAddr, address _to, uint _amount) public onlyOwner {\n        StandardToken(_tokenAddr).transfer(_to, _amount);\n    }\n}\n\n\n//Dar panah khoda",
  "sourcePath": "/home/projects/projects/deus/stakeAndYield/contracts/StakeAndYield.sol",
  "compiler": {
    "name": "solc",
    "version": "0.6.12+commit.27d51765.Emscripten.clang"
  },
  "schemaVersion": "3.3.2",
  "updatedAt": "2021-05-19T08:44:23.949Z",
  "devdoc": {
    "kind": "dev",
    "methods": {
      "owner()": {
        "details": "Returns the address of the current owner."
      },
      "renounceOwnership()": {
        "details": "Leaves the contract without owner. It will not be possible to call `onlyOwner` functions anymore. Can only be called by the current owner. NOTE: Renouncing ownership will leave the contract without an owner, thereby removing any functionality that is only available to the owner."
      },
      "transferOwnership(address)": {
        "details": "Transfers ownership of the contract to a new account (`newOwner`). Can only be called by the current owner."
      }
    },
    "version": 1
  },
  "userdoc": {
    "kind": "user",
    "methods": {},
    "version": 1
  }
}