{
  "contractName": "YearnStrategy",
  "abi": [
    {
      "inputs": [
        {
          "internalType": "address",
          "name": "_vault",
          "type": "address"
        },
        {
          "internalType": "address",
          "name": "_controller",
          "type": "address"
        }
      ],
      "stateMutability": "nonpayable",
      "type": "constructor"
    },
    {
      "anonymous": false,
      "inputs": [
        {
          "indexed": true,
          "internalType": "address",
          "name": "previousOwner",
          "type": "address"
        },
        {
          "indexed": true,
          "internalType": "address",
          "name": "newOwner",
          "type": "address"
        }
      ],
      "name": "OwnershipTransferred",
      "type": "event"
    },
    {
      "inputs": [],
      "name": "controller",
      "outputs": [
        {
          "internalType": "contract IController",
          "name": "",
          "type": "address"
        }
      ],
      "stateMutability": "view",
      "type": "function"
    },
    {
      "inputs": [],
      "name": "ethPushedToYearn",
      "outputs": [
        {
          "internalType": "uint256",
          "name": "",
          "type": "uint256"
        }
      ],
      "stateMutability": "view",
      "type": "function"
    },
    {
      "inputs": [],
      "name": "lastBalance",
      "outputs": [
        {
          "internalType": "uint256",
          "name": "",
          "type": "uint256"
        }
      ],
      "stateMutability": "view",
      "type": "function"
    },
    {
      "inputs": [],
      "name": "lastEpochTime",
      "outputs": [
        {
          "internalType": "uint256",
          "name": "",
          "type": "uint256"
        }
      ],
      "stateMutability": "view",
      "type": "function"
    },
    {
      "inputs": [],
      "name": "lastYieldWithdrawed",
      "outputs": [
        {
          "internalType": "uint256",
          "name": "",
          "type": "uint256"
        }
      ],
      "stateMutability": "view",
      "type": "function"
    },
    {
      "inputs": [],
      "name": "minDepositable",
      "outputs": [
        {
          "internalType": "uint256",
          "name": "",
          "type": "uint256"
        }
      ],
      "stateMutability": "view",
      "type": "function"
    },
    {
      "inputs": [],
      "name": "minRewards",
      "outputs": [
        {
          "internalType": "uint256",
          "name": "",
          "type": "uint256"
        }
      ],
      "stateMutability": "view",
      "type": "function"
    },
    {
      "inputs": [],
      "name": "operator",
      "outputs": [
        {
          "internalType": "address",
          "name": "",
          "type": "address"
        }
      ],
      "stateMutability": "view",
      "type": "function"
    },
    {
      "inputs": [],
      "name": "owner",
      "outputs": [
        {
          "internalType": "address",
          "name": "",
          "type": "address"
        }
      ],
      "stateMutability": "view",
      "type": "function"
    },
    {
      "inputs": [],
      "name": "renounceOwnership",
      "outputs": [],
      "stateMutability": "nonpayable",
      "type": "function"
    },
    {
      "inputs": [
        {
          "internalType": "address",
          "name": "newOwner",
          "type": "address"
        }
      ],
      "name": "transferOwnership",
      "outputs": [],
      "stateMutability": "nonpayable",
      "type": "function"
    },
    {
      "inputs": [],
      "name": "vault",
      "outputs": [
        {
          "internalType": "contract IStakeAndYield",
          "name": "",
          "type": "address"
        }
      ],
      "stateMutability": "view",
      "type": "function"
    },
    {
      "inputs": [],
      "name": "weth",
      "outputs": [
        {
          "internalType": "contract IWETH",
          "name": "",
          "type": "address"
        }
      ],
      "stateMutability": "view",
      "type": "function"
    },
    {
      "inputs": [],
      "name": "yearFeesPercent",
      "outputs": [
        {
          "internalType": "uint256",
          "name": "",
          "type": "uint256"
        }
      ],
      "stateMutability": "view",
      "type": "function"
    },
    {
      "inputs": [],
      "name": "yweth",
      "outputs": [
        {
          "internalType": "contract IYearnWETH",
          "name": "",
          "type": "address"
        }
      ],
      "stateMutability": "view",
      "type": "function"
    },
    {
      "inputs": [
        {
          "internalType": "uint256",
          "name": "ETHPerToken",
          "type": "uint256"
        }
      ],
      "name": "epoch",
      "outputs": [],
      "stateMutability": "nonpayable",
      "type": "function"
    },
    {
      "inputs": [],
      "name": "calculateRewards",
      "outputs": [
        {
          "internalType": "uint256",
          "name": "",
          "type": "uint256"
        }
      ],
      "stateMutability": "view",
      "type": "function"
    },
    {
      "inputs": [],
      "name": "pendingBalance",
      "outputs": [
        {
          "internalType": "uint256",
          "name": "",
          "type": "uint256"
        }
      ],
      "stateMutability": "view",
      "type": "function"
    },
    {
      "inputs": [],
      "name": "getLastEpochTime",
      "outputs": [
        {
          "internalType": "uint256",
          "name": "",
          "type": "uint256"
        }
      ],
      "stateMutability": "view",
      "type": "function"
    },
    {
      "inputs": [
        {
          "internalType": "uint256",
          "name": "_val",
          "type": "uint256"
        }
      ],
      "name": "setYearnFeesPercent",
      "outputs": [],
      "stateMutability": "nonpayable",
      "type": "function"
    },
    {
      "inputs": [
        {
          "internalType": "address",
          "name": "_addr",
          "type": "address"
        }
      ],
      "name": "setOperator",
      "outputs": [],
      "stateMutability": "nonpayable",
      "type": "function"
    },
    {
      "inputs": [
        {
          "internalType": "uint256",
          "name": "_val",
          "type": "uint256"
        }
      ],
      "name": "setMinRewards",
      "outputs": [],
      "stateMutability": "nonpayable",
      "type": "function"
    },
    {
      "inputs": [
        {
          "internalType": "uint256",
          "name": "_val",
          "type": "uint256"
        }
      ],
      "name": "setMinDepositable",
      "outputs": [],
      "stateMutability": "nonpayable",
      "type": "function"
    },
    {
      "inputs": [
        {
          "internalType": "address",
          "name": "_controller",
          "type": "address"
        },
        {
          "internalType": "address",
          "name": "_vault",
          "type": "address"
        }
      ],
      "name": "setController",
      "outputs": [],
      "stateMutability": "nonpayable",
      "type": "function"
    },
    {
      "inputs": [
        {
          "internalType": "uint256",
          "name": "amount",
          "type": "uint256"
        },
        {
          "internalType": "address",
          "name": "addr",
          "type": "address"
        }
      ],
      "name": "emergencyWithdrawETH",
      "outputs": [],
      "stateMutability": "nonpayable",
      "type": "function"
    },
    {
      "inputs": [
        {
          "internalType": "address",
          "name": "_tokenAddr",
          "type": "address"
        },
        {
          "internalType": "address",
          "name": "_to",
          "type": "address"
        },
        {
          "internalType": "uint256",
          "name": "_amount",
          "type": "uint256"
        }
      ],
      "name": "emergencyWithdrawERC20Tokens",
      "outputs": [],
      "stateMutability": "nonpayable",
      "type": "function"
    }
  ],
  "bytecode": "0x608060405260006004819055600555600880546001600160a01b031990811673a9fe4601811213c340e850ea305481aff02f5b28179091556009805490911673c02aaa39b223fe8d0a0e5c4f27ead9083c756cc2179055662386f26fc10000600b5566b1a2bc2ec50000600c5534801561007857600080fd5b506040516114ee3803806114ee8339818101604052604081101561009b57600080fd5b50805160209091015160006100ae610129565b600080546001600160a01b0319166001600160a01b0383169081178255604051929350917f8be0079c531659141344cd1fd0a4f28419497f9722a3daafe3b4186f6b6457e0908290a350600680546001600160a01b039384166001600160a01b0319918216179091556007805492909316911617905561012d565b3390565b6113b28061013c6000396000f3fe608060405234801561001057600080fd5b506004361061018e5760003560e01c80637ce68611116100de578063b3ab15fb11610097578063d02e27ac11610071578063d02e27ac14610348578063f2fde38b14610365578063f77c47911461038b578063fbfa77cf146103935761018e565b8063b3ab15fb146102e4578063b3f5e0081461030a578063ba522458146103405761018e565b80637ce68611146102b457806388c41789146102bc57806389c614b8146102c45780638da5cb5b146102cc5780638f014f18146102d45780638f1c56bd146102dc5761018e565b80633e50de301161014b578063570ca73511610125578063570ca7351461026e57806357b4d18e14610276578063715018a61461027e5780637b7d6c68146102865761018e565b80633e50de30146102255780633fc8cef31461022d5780635487c577146102515761018e565b806302abcb3b1461019357806315945006146101b257806316caf8c7146101de57806317fe6e09146101f85780632d7c071e1461021557806334535ee11461021d575b600080fd5b6101b0600480360360208110156101a957600080fd5b503561039b565b005b6101b0600480360360408110156101c857600080fd5b50803590602001356001600160a01b03166103f8565b6101e661049e565b60408051918252519081900360200190f35b6101b06004803603602081101561020e57600080fd5b50356104a4565b6101e6610501565b6101e6610507565b6101e661050d565b610235610664565b604080516001600160a01b039092168252519081900360200190f35b6101b06004803603602081101561026757600080fd5b5035610673565b61023561080e565b6101e661081d565b6101b06108c5565b6101b06004803603604081101561029c57600080fd5b506001600160a01b0381358116916020013516610967565b6101e6610a19565b6101e6610a1f565b6101e6610a25565b610235610a2b565b610235610a3a565b6101e6610a49565b6101b0600480360360208110156102fa57600080fd5b50356001600160a01b0316610a4f565b6101b06004803603606081101561032057600080fd5b506001600160a01b03813581169160208101359091169060400135610ac9565b6101e6610ba2565b6101b06004803603602081101561035e57600080fd5b5035610ba8565b6101b06004803603602081101561037b57600080fd5b50356001600160a01b0316610c05565b610235610cfd565b610235610d0c565b6103a3610d1b565b6000546001600160a01b039081169116146103f3576040805162461bcd60e51b8152602060048201819052602482015260008051602061135d833981519152604482015290519081900360640190fd5b600c55565b610400610d1b565b6000546001600160a01b03908116911614610450576040805162461bcd60e51b8152602060048201819052602482015260008051602061135d833981519152604482015290519081900360640190fd5b6001600160a01b03811661046357600080fd5b6040516001600160a01b0382169083156108fc029084906000818181858888f19350505050158015610499573d6000803e3d6000fd5b505050565b60035481565b6104ac610d1b565b6000546001600160a01b039081169116146104fc576040805162461bcd60e51b8152602060048201819052602482015260008051602061135d833981519152604482015290519081900360640190fd5b600b55565b600c5481565b600b5481565b600854604080516370a0823160e01b8152306004820152905160009283926001600160a01b03909116916370a0823191602480820192602092909190829003018186803b15801561055d57600080fd5b505afa158015610571573d6000803e3d6000fd5b505050506040513d602081101561058757600080fd5b505160085460408051634ca9858360e11b8152905192935060009261061f92670de0b6b3a764000092610619926001600160a01b03909216916399530b0691600480820192602092909190829003018186803b1580156105e657600080fd5b505afa1580156105fa573d6000803e3d6000fd5b505050506040513d602081101561061057600080fd5b50518590610d1f565b90610d81565b90506106406103e86106196004546103e80384610d1f90919063ffffffff16565b905060055481111561065a57600554810392505050610661565b6000925050505b90565b6009546001600160a01b031681565b61067b610a2b565b6001600160a01b0316336001600160a01b031614806106a45750600a546001600160a01b031633145b6106de576040805162461bcd60e51b815260206004820152600660248201526510b7bbb732b960d11b604482015290519081900360640190fd5b60006106e861081d565b9050600061070a610705670de0b6b3a76400006106198587610d1f565b610dc3565b4260015560025490915061071e9083610f95565b60025560065460408051633caef61b60e21b815290516000926001600160a01b03169163f2bbd86c916004808301926020929190829003018186803b15801561076657600080fd5b505afa15801561077a573d6000803e3d6000fd5b505050506040513d602081101561079057600080fd5b50516003549091506000906107a6908390610fef565b905080156107f657600382905560006107cb670de0b6b3a76400006106198489610d1f565b90506107df6107da8286610f95565b611031565b506005546107ed9082610fef565b60055550610807565b82156108075761080583611031565b505b5050505050565b600a546001600160a01b031681565b6006546040805163bd85b03960e01b815260026004820152905160009283926001600160a01b039091169163bd85b03991602480820192602092909190829003018186803b15801561086e57600080fd5b505afa158015610882573d6000803e3d6000fd5b505050506040513d602081101561089857600080fd5b50516002549091508110156108b1576000915050610661565b6002546108bf908290610fef565b91505090565b6108cd610d1b565b6000546001600160a01b0390811691161461091d576040805162461bcd60e51b8152602060048201819052602482015260008051602061135d833981519152604482015290519081900360640190fd5b600080546040516001600160a01b03909116907f8be0079c531659141344cd1fd0a4f28419497f9722a3daafe3b4186f6b6457e0908390a3600080546001600160a01b0319169055565b61096f610d1b565b6000546001600160a01b039081169116146109bf576040805162461bcd60e51b8152602060048201819052602482015260008051602061135d833981519152604482015290519081900360640190fd5b6001600160a01b038216156109ea57600780546001600160a01b0319166001600160a01b0384161790555b6001600160a01b03811615610a1557600680546001600160a01b0319166001600160a01b0383161790555b5050565b60055481565b60045481565b60015481565b6000546001600160a01b031690565b6008546001600160a01b031681565b60025481565b610a57610d1b565b6000546001600160a01b03908116911614610aa7576040805162461bcd60e51b8152602060048201819052602482015260008051602061135d833981519152604482015290519081900360640190fd5b600a80546001600160a01b0319166001600160a01b0392909216919091179055565b610ad1610d1b565b6000546001600160a01b03908116911614610b21576040805162461bcd60e51b8152602060048201819052602482015260008051602061135d833981519152604482015290519081900360640190fd5b826001600160a01b031663a9059cbb83836040518363ffffffff1660e01b815260040180836001600160a01b0316815260200182815260200192505050602060405180830381600087803b158015610b7857600080fd5b505af1158015610b8c573d6000803e3d6000fd5b505050506040513d602081101561080757600080fd5b60015490565b610bb0610d1b565b6000546001600160a01b03908116911614610c00576040805162461bcd60e51b8152602060048201819052602482015260008051602061135d833981519152604482015290519081900360640190fd5b600455565b610c0d610d1b565b6000546001600160a01b03908116911614610c5d576040805162461bcd60e51b8152602060048201819052602482015260008051602061135d833981519152604482015290519081900360640190fd5b6001600160a01b038116610ca25760405162461bcd60e51b81526004018080602001828103825260268152602001806113166026913960400191505060405180910390fd5b600080546040516001600160a01b03808516939216917f8be0079c531659141344cd1fd0a4f28419497f9722a3daafe3b4186f6b6457e091a3600080546001600160a01b0319166001600160a01b0392909216919091179055565b6007546001600160a01b031681565b6006546001600160a01b031681565b3390565b600082610d2e57506000610d7b565b82820282848281610d3b57fe5b0414610d785760405162461bcd60e51b815260040180806020018281038252602181526020018061133c6021913960400191505060405180910390fd5b90505b92915050565b6000610d7883836040518060400160405280601a81526020017f536166654d6174683a206469766973696f6e206279207a65726f000000000000815250611219565b600080610dce61050d565b90506000818411610de0576000610dea565b610dea8483610fef565b9050600c548110610e725760075460408051637803ec9360e11b81526004810184905230602482015290516001600160a01b039092169163f007d9269160448082019260009290919082900301818387803b158015610e4857600080fd5b505af1158015610e5c573d6000803e3d6000fd5b5050600554610e6e9250905082610f95565b6005555b600b54821115610f8957838211610e8a576000610e94565b610e948285610fef565b600754600654604080516369940d7960e01b815290519396506001600160a01b0392831693637fc0953193879316916369940d79916004808301926020929190829003018186803b158015610ee857600080fd5b505afa158015610efc573d6000803e3d6000fd5b505050506040513d6020811015610f1257600080fd5b5051600654604080516001600160e01b031960e087901b16815260048101949094526001600160a01b0392831660248501529116604483015251606480830192600092919082900301818387803b158015610f6c57600080fd5b505af1158015610f80573d6000803e3d6000fd5b50505050610f8e565b600092505b5050919050565b600082820183811015610d78576040805162461bcd60e51b815260206004820152601b60248201527f536166654d6174683a206164646974696f6e206f766572666c6f770000000000604482015290519081900360640190fd5b6000610d7883836040518060400160405280601e81526020017f536166654d6174683a207375627472616374696f6e206f766572666c6f7700008152506112bb565b600854604080516370a0823160e01b8152306004820152905160009283926001600160a01b03909116916370a0823191602480820192602092909190829003018186803b15801561108157600080fd5b505afa158015611095573d6000803e3d6000fd5b505050506040513d60208110156110ab57600080fd5b505160085460408051634ca9858360e11b8152905192935060009261114392670de0b6b3a76400009261113d926001600160a01b03909216916399530b0691600480820192602092909190829003018186803b15801561110a57600080fd5b505afa15801561111e573d6000803e3d6000fd5b505050506040513d602081101561113457600080fd5b50518790610d81565b90610d1f565b90508082101561118e576040805162461bcd60e51b81526020600482015260116024820152704e6f7420656e6f7567682073686172657360781b604482015290519081900360640190fd5b60085460075460408051627b8a6760e11b8152600481018590526001600160a01b0392831660248201529051919092169162f714ce9160448083019260209291908290030181600087803b1580156111e557600080fd5b505af11580156111f9573d6000803e3d6000fd5b505050506040513d602081101561120f57600080fd5b5051949350505050565b600081836112a55760405162461bcd60e51b81526004018080602001828103825283818151815260200191508051906020019080838360005b8381101561126a578181015183820152602001611252565b50505050905090810190601f1680156112975780820380516001836020036101000a031916815260200191505b509250505060405180910390fd5b5060008385816112b157fe5b0495945050505050565b6000818484111561130d5760405162461bcd60e51b815260206004820181815283516024840152835190928392604490910191908501908083836000831561126a578181015183820152602001611252565b50505090039056fe4f776e61626c653a206e6577206f776e657220697320746865207a65726f2061646472657373536166654d6174683a206d756c7469706c69636174696f6e206f766572666c6f774f776e61626c653a2063616c6c6572206973206e6f7420746865206f776e6572a26469706673582212206b2d7d0a2ef0b2d8fc17f346bf18f41ccc45fe2dc257eaed6a694f5eff6d792464736f6c634300060c0033",
  "immutableReferences": {},
  "source": "pragma solidity 0.6.12;\n\n//import \"zeppelin-solidity/contracts/math/SafeMath.sol\";\n//import \"zeppelin-solidity/contracts/ownership/Ownable.sol\";\n\nimport \"./SafeMath.sol\";\nimport \"./Ownable.sol\";\n\ninterface StakedToken {\n    function balanceOf(address account) external view returns (uint256);\n    function transfer(address recipient, uint256 amount) external returns (bool);\n    function transferFrom(address sender, address recipient, uint256 amount) external returns (bool);\n    function approve(address spender, uint256 amount) external returns (bool);\n}\n\ninterface IStakeAndYield {\n    function getRewardToken() external view returns(address);\n    function totalSupply(uint256 stakeType) external view returns(uint256);\n    function totalYieldWithdrawed() external view returns(uint256);\n    function notifyRewardAmount(uint256 reward, uint256 stakeType) external;\n}\n\ninterface IController {\n    function withdrawETH(uint256 amount) external;\n    function depositForStrategy(uint256 amount, address addr) external;\n    function buyForStrategy(\n        uint256 amount,\n        address rewardToken,\n        address recipient\n    ) external;\n}\n\ninterface IYearnVault {\n    function depositETH() external payable;\n}\n\ninterface IYearnWETH{\n    function balanceOf(address account) external view returns (uint256);\n    function withdraw(uint256 amount, address recipient) external returns(uint256);\n    function pricePerShare() external view returns(uint256);\n    function deposit(uint256 _amount) external returns(uint256);\n}\n\ninterface IWETH is StakedToken{\n    function withdraw(uint256 amount) external returns(uint256);\n}\n\n\ncontract YearnStrategy is Ownable {\n    using SafeMath for uint256;\n\n     uint256 public lastEpochTime;\n     uint256 public lastBalance;\n     uint256 public lastYieldWithdrawed;\n\n     uint256 public yearFeesPercent = 0;\n\n     uint256 public ethPushedToYearn = 0;\n\n     IStakeAndYield public vault;\n\n\n    IController public controller;\n    \n    IYearnWETH public yweth = IYearnWETH(0xa9fE4601811213c340e850ea305481afF02f5b28);\n    IWETH public weth = IWETH(0xC02aaA39b223FE8D0A0e5C4F27eAD9083C756Cc2);\n\n    address public operator;\n\n\n    uint256 public minRewards = 0.01 ether;\n    uint256 public minDepositable = 0.05 ether;\n\n    modifier onlyOwnerOrOperator(){\n        require(\n            msg.sender == owner() || msg.sender == operator,\n            \"!owner\"\n        );\n        _;\n    }\n\n    constructor(\n        address _vault,\n        address _controller\n    ) public{\n        vault = IStakeAndYield(_vault);\n        controller = IController(_controller);\n    }\n\n    // Since Owner is calling this function, we can pass\n    // the ETHPerToken amount\n    function epoch(uint256 ETHPerToken) public onlyOwnerOrOperator{\n        uint256 balance = pendingBalance();\n        //require(balance > 0, \"balance is 0\");\n        uint256 withdrawable = harvest(balance.mul(ETHPerToken).div(1 ether));\n        lastEpochTime = block.timestamp;\n        lastBalance = lastBalance.add(balance);\n\n        uint256 currentWithdrawd = vault.totalYieldWithdrawed();\n        uint256 withdrawAmountToken = currentWithdrawd.sub(lastYieldWithdrawed);\n        if(withdrawAmountToken > 0){\n            lastYieldWithdrawed = currentWithdrawd;\n            uint256 ethWithdrawed = withdrawAmountToken.mul(\n                ETHPerToken\n            ).div(1 ether);\n            \n            withdrawFromYearn(ethWithdrawed.add(withdrawable));\n            ethPushedToYearn = ethPushedToYearn.sub(ethWithdrawed);\n        }else{\n            if(withdrawable > 0){\n                withdrawFromYearn(withdrawable);\n            }\n        }\n    }\n\n    function harvest(uint256 ethBalance) private returns(\n        uint256 withdrawable\n    ){\n        uint256 rewards = calculateRewards();\n        uint256 depositable = ethBalance > rewards ? ethBalance.sub(rewards) : 0;\n        if(depositable >= minDepositable){\n            //deposit to yearn\n            controller.depositForStrategy(depositable, address(this));\n            ethPushedToYearn = ethPushedToYearn.add(\n                depositable\n            );\n        }\n\n        if(rewards > minRewards){\n            withdrawable = rewards > ethBalance ? rewards.sub(ethBalance) : 0;\n            // get DEA and send to Vault\n            controller.buyForStrategy(\n                rewards,\n                vault.getRewardToken(),\n                address(vault)\n            );\n        }else{\n            withdrawable = 0;\n        }\n    }\n\n    function withdrawFromYearn(uint256 ethAmount) private returns(uint256){\n        uint256 yShares = yweth.balanceOf(address(this));\n\n        uint256 sharesToWithdraw = ethAmount.div(\n            yweth.pricePerShare()\n        ).mul(1 ether);\n        require(yShares >= sharesToWithdraw, \"Not enough shares\");\n\n        return yweth.withdraw(sharesToWithdraw, address(controller));\n    }\n\n    function calculateRewards() public view returns(uint256){\n        uint256 yShares = yweth.balanceOf(address(this));\n        uint256 yETHBalance = yShares.mul(\n            yweth.pricePerShare()\n        ).div(1 ether);\n\n        yETHBalance = yETHBalance.mul(1000 - yearFeesPercent).div(1000);\n        if(yETHBalance > ethPushedToYearn){\n            return yETHBalance - ethPushedToYearn;\n        }\n        return 0;\n    }\n\n    function pendingBalance() public view returns(uint256){\n        uint256 vaultBalance = vault.totalSupply(2);\n        if(vaultBalance < lastBalance){\n            return 0;\n        }\n        return vaultBalance.sub(lastBalance);\n    }\n\n    function getLastEpochTime() public view returns(uint256){\n        return lastEpochTime;\n    }\n\n    function setYearnFeesPercent(uint256 _val) public onlyOwner{\n        yearFeesPercent = _val;\n    }\n\n    function setOperator(address _addr) public onlyOwner{\n        operator = _addr;\n    }\n\n    function setMinRewards(uint256 _val) public onlyOwner{\n        minRewards = _val;\n    }\n\n    function setMinDepositable(uint256 _val) public onlyOwner{\n        minDepositable = _val;\n    }\n\n    function setController(address _controller, address _vault) public onlyOwner{\n        if(_controller != address(0)){\n            controller = IController(_controller);\n        }\n        if(_vault != address(0)){\n            vault = IStakeAndYield(_vault);\n        }\n    }\n\n    function emergencyWithdrawETH(uint256 amount, address addr) public onlyOwner{\n        require(addr != address(0));\n        payable(addr).transfer(amount);\n    }\n\n    function emergencyWithdrawERC20Tokens(address _tokenAddr, address _to, uint _amount) public onlyOwner {\n        StakedToken(_tokenAddr).transfer(_to, _amount);\n    }\n}\n",
  "sourcePath": "/home/projects/projects/deus/stakeAndYield/contracts/YearnStrategy.sol",
  "compiler": {
    "name": "solc",
    "version": "0.6.12+commit.27d51765.Emscripten.clang"
  },
  "schemaVersion": "3.3.2",
  "updatedAt": "2021-05-06T14:13:52.428Z",
  "devdoc": {
    "kind": "dev",
    "methods": {
      "owner()": {
        "details": "Returns the address of the current owner."
      },
      "renounceOwnership()": {
        "details": "Leaves the contract without owner. It will not be possible to call `onlyOwner` functions anymore. Can only be called by the current owner. NOTE: Renouncing ownership will leave the contract without an owner, thereby removing any functionality that is only available to the owner."
      },
      "transferOwnership(address)": {
        "details": "Transfers ownership of the contract to a new account (`newOwner`). Can only be called by the current owner."
      }
    },
    "version": 1
  },
  "userdoc": {
    "kind": "user",
    "methods": {},
    "version": 1
  }
}